{
	"erc_20_std.sol": {
		"OwnerShip": {
			"abi": [
				{
					"inputs": [],
					"stateMutability": "nonpayable",
					"type": "constructor"
				},
				{
					"anonymous": false,
					"inputs": [
						{
							"indexed": true,
							"internalType": "address",
							"name": "_from",
							"type": "address"
						},
						{
							"indexed": true,
							"internalType": "address",
							"name": "_to",
							"type": "address"
						}
					],
					"name": "TransferOwnership",
					"type": "event"
				},
				{
					"inputs": [],
					"name": "acceptOwner",
					"outputs": [],
					"stateMutability": "nonpayable",
					"type": "function"
				},
				{
					"inputs": [
						{
							"internalType": "address",
							"name": "_to_",
							"type": "address"
						}
					],
					"name": "changeOwner",
					"outputs": [],
					"stateMutability": "nonpayable",
					"type": "function"
				}
			],
			"devdoc": {
				"kind": "dev",
				"methods": {},
				"version": 1
			},
			"evm": {
				"assembly": "    /* \"erc_20_std.sol\":990:1602  contract OwnerShip {... */\n  mstore(0x40, 0x80)\n    /* \"erc_20_std.sol\":1145:1203  constructor(){... */\n  callvalue\n  dup1\n  iszero\n  tag_1\n  jumpi\n  0x00\n  dup1\n  revert\ntag_1:\n  pop\n    /* \"erc_20_std.sol\":1185:1195  msg.sender */\n  caller\n    /* \"erc_20_std.sol\":1169:1182  contractOwner */\n  0x00\n  dup1\n    /* \"erc_20_std.sol\":1169:1195  contractOwner = msg.sender */\n  0x0100\n  exp\n  dup2\n  sload\n  dup2\n  0xffffffffffffffffffffffffffffffffffffffff\n  mul\n  not\n  and\n  swap1\n  dup4\n  0xffffffffffffffffffffffffffffffffffffffff\n  and\n  mul\n  or\n  swap1\n  sstore\n  pop\n    /* \"erc_20_std.sol\":990:1602  contract OwnerShip {... */\n  dataSize(sub_0)\n  dup1\n  dataOffset(sub_0)\n  0x00\n  codecopy\n  0x00\n  return\nstop\n\nsub_0: assembly {\n        /* \"erc_20_std.sol\":990:1602  contract OwnerShip {... */\n      mstore(0x40, 0x80)\n      callvalue\n      dup1\n      iszero\n      tag_1\n      jumpi\n      0x00\n      dup1\n      revert\n    tag_1:\n      pop\n      jumpi(tag_2, lt(calldatasize, 0x04))\n      shr(0xe0, calldataload(0x00))\n      dup1\n      0xa6f9dae1\n      eq\n      tag_3\n      jumpi\n      dup1\n      0xebbc4965\n      eq\n      tag_4\n      jumpi\n    tag_2:\n      0x00\n      dup1\n      revert\n        /* \"erc_20_std.sol\":1209:1358  function changeOwner(address  _to_) public  {... */\n    tag_3:\n      tag_5\n      0x04\n      dup1\n      calldatasize\n      sub\n      dup2\n      add\n      swap1\n      tag_6\n      swap2\n      swap1\n      tag_7\n      jump\t// in\n    tag_6:\n      tag_8\n      jump\t// in\n    tag_5:\n      stop\n        /* \"erc_20_std.sol\":1364:1600  function acceptOwner() public {... */\n    tag_4:\n      tag_9\n      tag_10\n      jump\t// in\n    tag_9:\n      stop\n        /* \"erc_20_std.sol\":1209:1358  function changeOwner(address  _to_) public  {... */\n    tag_8:\n        /* \"erc_20_std.sol\":1288:1298  msg.sender */\n      caller\n        /* \"erc_20_std.sol\":1271:1298  contractOwner == msg.sender */\n      0xffffffffffffffffffffffffffffffffffffffff\n      and\n        /* \"erc_20_std.sol\":1271:1284  contractOwner */\n      0x00\n      dup1\n      sload\n      swap1\n      0x0100\n      exp\n      swap1\n      div\n      0xffffffffffffffffffffffffffffffffffffffff\n      and\n        /* \"erc_20_std.sol\":1271:1298  contractOwner == msg.sender */\n      0xffffffffffffffffffffffffffffffffffffffff\n      and\n      eq\n        /* \"erc_20_std.sol\":1263:1326  require(contractOwner == msg.sender, \"Only Owner can call it!\") */\n      tag_12\n      jumpi\n      mload(0x40)\n      0x08c379a000000000000000000000000000000000000000000000000000000000\n      dup2\n      mstore\n      0x04\n      add\n      tag_13\n      swap1\n      tag_14\n      jump\t// in\n    tag_13:\n      mload(0x40)\n      dup1\n      swap2\n      sub\n      swap1\n      revert\n    tag_12:\n        /* \"erc_20_std.sol\":1347:1351  _to_ */\n      dup1\n        /* \"erc_20_std.sol\":1336:1344  newOwner */\n      0x01\n      0x00\n        /* \"erc_20_std.sol\":1336:1351  newOwner = _to_ */\n      0x0100\n      exp\n      dup2\n      sload\n      dup2\n      0xffffffffffffffffffffffffffffffffffffffff\n      mul\n      not\n      and\n      swap1\n      dup4\n      0xffffffffffffffffffffffffffffffffffffffff\n      and\n      mul\n      or\n      swap1\n      sstore\n      pop\n        /* \"erc_20_std.sol\":1209:1358  function changeOwner(address  _to_) public  {... */\n      pop\n      jump\t// out\n        /* \"erc_20_std.sol\":1364:1600  function acceptOwner() public {... */\n    tag_10:\n        /* \"erc_20_std.sol\":1426:1434  newOwner */\n      0x01\n      0x00\n      swap1\n      sload\n      swap1\n      0x0100\n      exp\n      swap1\n      div\n      0xffffffffffffffffffffffffffffffffffffffff\n      and\n        /* \"erc_20_std.sol\":1412:1434  msg.sender == newOwner */\n      0xffffffffffffffffffffffffffffffffffffffff\n      and\n        /* \"erc_20_std.sol\":1412:1422  msg.sender */\n      caller\n        /* \"erc_20_std.sol\":1412:1434  msg.sender == newOwner */\n      0xffffffffffffffffffffffffffffffffffffffff\n      and\n      eq\n        /* \"erc_20_std.sol\":1404:1471  require(msg.sender == newOwner, \"Only new assigend owner call it!\") */\n      tag_16\n      jumpi\n      mload(0x40)\n      0x08c379a000000000000000000000000000000000000000000000000000000000\n      dup2\n      mstore\n      0x04\n      add\n      tag_17\n      swap1\n      tag_18\n      jump\t// in\n    tag_17:\n      mload(0x40)\n      dup1\n      swap2\n      sub\n      swap1\n      revert\n    tag_16:\n        /* \"erc_20_std.sol\":1519:1527  newOwner */\n      0x01\n      0x00\n      swap1\n      sload\n      swap1\n      0x0100\n      exp\n      swap1\n      div\n      0xffffffffffffffffffffffffffffffffffffffff\n      and\n        /* \"erc_20_std.sol\":1486:1528  TransferOwnership(contractOwner, newOwner) */\n      0xffffffffffffffffffffffffffffffffffffffff\n      and\n        /* \"erc_20_std.sol\":1504:1517  contractOwner */\n      0x00\n      dup1\n      sload\n      swap1\n      0x0100\n      exp\n      swap1\n      div\n      0xffffffffffffffffffffffffffffffffffffffff\n      and\n        /* \"erc_20_std.sol\":1486:1528  TransferOwnership(contractOwner, newOwner) */\n      0xffffffffffffffffffffffffffffffffffffffff\n      and\n      0x5c486528ec3e3f0ea91181cff8116f02bfa350e03b8b6f12e00765adbb5af85c\n      mload(0x40)\n      mload(0x40)\n      dup1\n      swap2\n      sub\n      swap1\n      log3\n        /* \"erc_20_std.sol\":1554:1562  newOwner */\n      0x01\n      0x00\n      swap1\n      sload\n      swap1\n      0x0100\n      exp\n      swap1\n      div\n      0xffffffffffffffffffffffffffffffffffffffff\n      and\n        /* \"erc_20_std.sol\":1538:1551  contractOwner */\n      0x00\n      dup1\n        /* \"erc_20_std.sol\":1538:1562  contractOwner = newOwner */\n      0x0100\n      exp\n      dup2\n      sload\n      dup2\n      0xffffffffffffffffffffffffffffffffffffffff\n      mul\n      not\n      and\n      swap1\n      dup4\n      0xffffffffffffffffffffffffffffffffffffffff\n      and\n      mul\n      or\n      swap1\n      sstore\n      pop\n        /* \"erc_20_std.sol\":1591:1592  0 */\n      0x00\n        /* \"erc_20_std.sol\":1572:1580  newOwner */\n      0x01\n      0x00\n        /* \"erc_20_std.sol\":1572:1593  newOwner = address(0) */\n      0x0100\n      exp\n      dup2\n      sload\n      dup2\n      0xffffffffffffffffffffffffffffffffffffffff\n      mul\n      not\n      and\n      swap1\n      dup4\n      0xffffffffffffffffffffffffffffffffffffffff\n      and\n      mul\n      or\n      swap1\n      sstore\n      pop\n        /* \"erc_20_std.sol\":1364:1600  function acceptOwner() public {... */\n      jump\t// out\n        /* \"#utility.yul\":7:146   */\n    tag_20:\n        /* \"#utility.yul\":53:58   */\n      0x00\n        /* \"#utility.yul\":91:97   */\n      dup2\n        /* \"#utility.yul\":78:98   */\n      calldataload\n        /* \"#utility.yul\":69:98   */\n      swap1\n      pop\n        /* \"#utility.yul\":107:140   */\n      tag_22\n        /* \"#utility.yul\":134:139   */\n      dup2\n        /* \"#utility.yul\":107:140   */\n      tag_23\n      jump\t// in\n    tag_22:\n        /* \"#utility.yul\":7:146   */\n      swap3\n      swap2\n      pop\n      pop\n      jump\t// out\n        /* \"#utility.yul\":152:481   */\n    tag_7:\n        /* \"#utility.yul\":211:217   */\n      0x00\n        /* \"#utility.yul\":260:262   */\n      0x20\n        /* \"#utility.yul\":248:257   */\n      dup3\n        /* \"#utility.yul\":239:246   */\n      dup5\n        /* \"#utility.yul\":235:258   */\n      sub\n        /* \"#utility.yul\":231:263   */\n      slt\n        /* \"#utility.yul\":228:347   */\n      iszero\n      tag_25\n      jumpi\n        /* \"#utility.yul\":266:345   */\n      tag_26\n      tag_27\n      jump\t// in\n    tag_26:\n        /* \"#utility.yul\":228:347   */\n    tag_25:\n        /* \"#utility.yul\":386:387   */\n      0x00\n        /* \"#utility.yul\":411:464   */\n      tag_28\n        /* \"#utility.yul\":456:463   */\n      dup5\n        /* \"#utility.yul\":447:453   */\n      dup3\n        /* \"#utility.yul\":436:445   */\n      dup6\n        /* \"#utility.yul\":432:454   */\n      add\n        /* \"#utility.yul\":411:464   */\n      tag_20\n      jump\t// in\n    tag_28:\n        /* \"#utility.yul\":401:464   */\n      swap2\n      pop\n        /* \"#utility.yul\":357:474   */\n      pop\n        /* \"#utility.yul\":152:481   */\n      swap3\n      swap2\n      pop\n      pop\n      jump\t// out\n        /* \"#utility.yul\":487:853   */\n    tag_29:\n        /* \"#utility.yul\":629:632   */\n      0x00\n        /* \"#utility.yul\":650:717   */\n      tag_31\n        /* \"#utility.yul\":714:716   */\n      0x20\n        /* \"#utility.yul\":709:712   */\n      dup4\n        /* \"#utility.yul\":650:717   */\n      tag_32\n      jump\t// in\n    tag_31:\n        /* \"#utility.yul\":643:717   */\n      swap2\n      pop\n        /* \"#utility.yul\":726:819   */\n      tag_33\n        /* \"#utility.yul\":815:818   */\n      dup3\n        /* \"#utility.yul\":726:819   */\n      tag_34\n      jump\t// in\n    tag_33:\n        /* \"#utility.yul\":844:846   */\n      0x20\n        /* \"#utility.yul\":839:842   */\n      dup3\n        /* \"#utility.yul\":835:847   */\n      add\n        /* \"#utility.yul\":828:847   */\n      swap1\n      pop\n        /* \"#utility.yul\":487:853   */\n      swap2\n      swap1\n      pop\n      jump\t// out\n        /* \"#utility.yul\":859:1225   */\n    tag_35:\n        /* \"#utility.yul\":1001:1004   */\n      0x00\n        /* \"#utility.yul\":1022:1089   */\n      tag_37\n        /* \"#utility.yul\":1086:1088   */\n      0x17\n        /* \"#utility.yul\":1081:1084   */\n      dup4\n        /* \"#utility.yul\":1022:1089   */\n      tag_32\n      jump\t// in\n    tag_37:\n        /* \"#utility.yul\":1015:1089   */\n      swap2\n      pop\n        /* \"#utility.yul\":1098:1191   */\n      tag_38\n        /* \"#utility.yul\":1187:1190   */\n      dup3\n        /* \"#utility.yul\":1098:1191   */\n      tag_39\n      jump\t// in\n    tag_38:\n        /* \"#utility.yul\":1216:1218   */\n      0x20\n        /* \"#utility.yul\":1211:1214   */\n      dup3\n        /* \"#utility.yul\":1207:1219   */\n      add\n        /* \"#utility.yul\":1200:1219   */\n      swap1\n      pop\n        /* \"#utility.yul\":859:1225   */\n      swap2\n      swap1\n      pop\n      jump\t// out\n        /* \"#utility.yul\":1231:1650   */\n    tag_18:\n        /* \"#utility.yul\":1397:1401   */\n      0x00\n        /* \"#utility.yul\":1435:1437   */\n      0x20\n        /* \"#utility.yul\":1424:1433   */\n      dup3\n        /* \"#utility.yul\":1420:1438   */\n      add\n        /* \"#utility.yul\":1412:1438   */\n      swap1\n      pop\n        /* \"#utility.yul\":1484:1493   */\n      dup2\n        /* \"#utility.yul\":1478:1482   */\n      dup2\n        /* \"#utility.yul\":1474:1494   */\n      sub\n        /* \"#utility.yul\":1470:1471   */\n      0x00\n        /* \"#utility.yul\":1459:1468   */\n      dup4\n        /* \"#utility.yul\":1455:1472   */\n      add\n        /* \"#utility.yul\":1448:1495   */\n      mstore\n        /* \"#utility.yul\":1512:1643   */\n      tag_41\n        /* \"#utility.yul\":1638:1642   */\n      dup2\n        /* \"#utility.yul\":1512:1643   */\n      tag_29\n      jump\t// in\n    tag_41:\n        /* \"#utility.yul\":1504:1643   */\n      swap1\n      pop\n        /* \"#utility.yul\":1231:1650   */\n      swap2\n      swap1\n      pop\n      jump\t// out\n        /* \"#utility.yul\":1656:2075   */\n    tag_14:\n        /* \"#utility.yul\":1822:1826   */\n      0x00\n        /* \"#utility.yul\":1860:1862   */\n      0x20\n        /* \"#utility.yul\":1849:1858   */\n      dup3\n        /* \"#utility.yul\":1845:1863   */\n      add\n        /* \"#utility.yul\":1837:1863   */\n      swap1\n      pop\n        /* \"#utility.yul\":1909:1918   */\n      dup2\n        /* \"#utility.yul\":1903:1907   */\n      dup2\n        /* \"#utility.yul\":1899:1919   */\n      sub\n        /* \"#utility.yul\":1895:1896   */\n      0x00\n        /* \"#utility.yul\":1884:1893   */\n      dup4\n        /* \"#utility.yul\":1880:1897   */\n      add\n        /* \"#utility.yul\":1873:1920   */\n      mstore\n        /* \"#utility.yul\":1937:2068   */\n      tag_43\n        /* \"#utility.yul\":2063:2067   */\n      dup2\n        /* \"#utility.yul\":1937:2068   */\n      tag_35\n      jump\t// in\n    tag_43:\n        /* \"#utility.yul\":1929:2068   */\n      swap1\n      pop\n        /* \"#utility.yul\":1656:2075   */\n      swap2\n      swap1\n      pop\n      jump\t// out\n        /* \"#utility.yul\":2162:2331   */\n    tag_32:\n        /* \"#utility.yul\":2246:2257   */\n      0x00\n        /* \"#utility.yul\":2280:2286   */\n      dup3\n        /* \"#utility.yul\":2275:2278   */\n      dup3\n        /* \"#utility.yul\":2268:2287   */\n      mstore\n        /* \"#utility.yul\":2320:2324   */\n      0x20\n        /* \"#utility.yul\":2315:2318   */\n      dup3\n        /* \"#utility.yul\":2311:2325   */\n      add\n        /* \"#utility.yul\":2296:2325   */\n      swap1\n      pop\n        /* \"#utility.yul\":2162:2331   */\n      swap3\n      swap2\n      pop\n      pop\n      jump\t// out\n        /* \"#utility.yul\":2337:2433   */\n    tag_47:\n        /* \"#utility.yul\":2374:2381   */\n      0x00\n        /* \"#utility.yul\":2403:2427   */\n      tag_49\n        /* \"#utility.yul\":2421:2426   */\n      dup3\n        /* \"#utility.yul\":2403:2427   */\n      tag_50\n      jump\t// in\n    tag_49:\n        /* \"#utility.yul\":2392:2427   */\n      swap1\n      pop\n        /* \"#utility.yul\":2337:2433   */\n      swap2\n      swap1\n      pop\n      jump\t// out\n        /* \"#utility.yul\":2439:2565   */\n    tag_50:\n        /* \"#utility.yul\":2476:2483   */\n      0x00\n        /* \"#utility.yul\":2516:2558   */\n      0xffffffffffffffffffffffffffffffffffffffff\n        /* \"#utility.yul\":2509:2514   */\n      dup3\n        /* \"#utility.yul\":2505:2559   */\n      and\n        /* \"#utility.yul\":2494:2559   */\n      swap1\n      pop\n        /* \"#utility.yul\":2439:2565   */\n      swap2\n      swap1\n      pop\n      jump\t// out\n        /* \"#utility.yul\":2694:2811   */\n    tag_27:\n        /* \"#utility.yul\":2803:2804   */\n      0x00\n        /* \"#utility.yul\":2800:2801   */\n      dup1\n        /* \"#utility.yul\":2793:2805   */\n      revert\n        /* \"#utility.yul\":2817:2999   */\n    tag_34:\n        /* \"#utility.yul\":2957:2991   */\n      0x4f6e6c79206e6577206173736967656e64206f776e65722063616c6c20697421\n        /* \"#utility.yul\":2953:2954   */\n      0x00\n        /* \"#utility.yul\":2945:2951   */\n      dup3\n        /* \"#utility.yul\":2941:2955   */\n      add\n        /* \"#utility.yul\":2934:2992   */\n      mstore\n        /* \"#utility.yul\":2817:2999   */\n      pop\n      jump\t// out\n        /* \"#utility.yul\":3005:3178   */\n    tag_39:\n        /* \"#utility.yul\":3145:3170   */\n      0x4f6e6c79204f776e65722063616e2063616c6c20697421000000000000000000\n        /* \"#utility.yul\":3141:3142   */\n      0x00\n        /* \"#utility.yul\":3133:3139   */\n      dup3\n        /* \"#utility.yul\":3129:3143   */\n      add\n        /* \"#utility.yul\":3122:3171   */\n      mstore\n        /* \"#utility.yul\":3005:3178   */\n      pop\n      jump\t// out\n        /* \"#utility.yul\":3184:3306   */\n    tag_23:\n        /* \"#utility.yul\":3257:3281   */\n      tag_58\n        /* \"#utility.yul\":3275:3280   */\n      dup2\n        /* \"#utility.yul\":3257:3281   */\n      tag_47\n      jump\t// in\n    tag_58:\n        /* \"#utility.yul\":3250:3255   */\n      dup2\n        /* \"#utility.yul\":3247:3282   */\n      eq\n        /* \"#utility.yul\":3237:3300   */\n      tag_59\n      jumpi\n        /* \"#utility.yul\":3296:3297   */\n      0x00\n        /* \"#utility.yul\":3293:3294   */\n      dup1\n        /* \"#utility.yul\":3286:3298   */\n      revert\n        /* \"#utility.yul\":3237:3300   */\n    tag_59:\n        /* \"#utility.yul\":3184:3306   */\n      pop\n      jump\t// out\n\n    auxdata: 0xa2646970667358221220c38ff7d4f62d689430832b3b1ec26576c31161a35bde9ceeea335d46214388f164736f6c63430008070033\n}\n",
				"bytecode": {
					"linkReferences": {},
					"object": "608060405234801561001057600080fd5b50336000806101000a81548173ffffffffffffffffffffffffffffffffffffffff021916908373ffffffffffffffffffffffffffffffffffffffff1602179055506104b4806100606000396000f3fe608060405234801561001057600080fd5b50600436106100365760003560e01c8063a6f9dae11461003b578063ebbc496514610057575b600080fd5b6100556004803603810190610050919061031a565b610061565b005b61005f610133565b005b3373ffffffffffffffffffffffffffffffffffffffff1660008054906101000a900473ffffffffffffffffffffffffffffffffffffffff1673ffffffffffffffffffffffffffffffffffffffff16146100ef576040517f08c379a00000000000000000000000000000000000000000000000000000000081526004016100e6906103ad565b60405180910390fd5b80600160006101000a81548173ffffffffffffffffffffffffffffffffffffffff021916908373ffffffffffffffffffffffffffffffffffffffff16021790555050565b600160009054906101000a900473ffffffffffffffffffffffffffffffffffffffff1673ffffffffffffffffffffffffffffffffffffffff163373ffffffffffffffffffffffffffffffffffffffff16146101c3576040517f08c379a00000000000000000000000000000000000000000000000000000000081526004016101ba9061038d565b60405180910390fd5b600160009054906101000a900473ffffffffffffffffffffffffffffffffffffffff1673ffffffffffffffffffffffffffffffffffffffff1660008054906101000a900473ffffffffffffffffffffffffffffffffffffffff1673ffffffffffffffffffffffffffffffffffffffff167f5c486528ec3e3f0ea91181cff8116f02bfa350e03b8b6f12e00765adbb5af85c60405160405180910390a3600160009054906101000a900473ffffffffffffffffffffffffffffffffffffffff166000806101000a81548173ffffffffffffffffffffffffffffffffffffffff021916908373ffffffffffffffffffffffffffffffffffffffff1602179055506000600160006101000a81548173ffffffffffffffffffffffffffffffffffffffff021916908373ffffffffffffffffffffffffffffffffffffffff160217905550565b60008135905061031481610467565b92915050565b6000602082840312156103305761032f610410565b5b600061033e84828501610305565b91505092915050565b60006103546020836103cd565b915061035f82610415565b602082019050919050565b60006103776017836103cd565b91506103828261043e565b602082019050919050565b600060208201905081810360008301526103a681610347565b9050919050565b600060208201905081810360008301526103c68161036a565b9050919050565b600082825260208201905092915050565b60006103e9826103f0565b9050919050565b600073ffffffffffffffffffffffffffffffffffffffff82169050919050565b600080fd5b7f4f6e6c79206e6577206173736967656e64206f776e65722063616c6c20697421600082015250565b7f4f6e6c79204f776e65722063616e2063616c6c20697421000000000000000000600082015250565b610470816103de565b811461047b57600080fd5b5056fea2646970667358221220c38ff7d4f62d689430832b3b1ec26576c31161a35bde9ceeea335d46214388f164736f6c63430008070033",
					"opcodes": "PUSH1 0x80 PUSH1 0x40 MSTORE CALLVALUE DUP1 ISZERO PUSH2 0x10 JUMPI PUSH1 0x0 DUP1 REVERT JUMPDEST POP CALLER PUSH1 0x0 DUP1 PUSH2 0x100 EXP DUP2 SLOAD DUP2 PUSH20 0xFFFFFFFFFFFFFFFFFFFFFFFFFFFFFFFFFFFFFFFF MUL NOT AND SWAP1 DUP4 PUSH20 0xFFFFFFFFFFFFFFFFFFFFFFFFFFFFFFFFFFFFFFFF AND MUL OR SWAP1 SSTORE POP PUSH2 0x4B4 DUP1 PUSH2 0x60 PUSH1 0x0 CODECOPY PUSH1 0x0 RETURN INVALID PUSH1 0x80 PUSH1 0x40 MSTORE CALLVALUE DUP1 ISZERO PUSH2 0x10 JUMPI PUSH1 0x0 DUP1 REVERT JUMPDEST POP PUSH1 0x4 CALLDATASIZE LT PUSH2 0x36 JUMPI PUSH1 0x0 CALLDATALOAD PUSH1 0xE0 SHR DUP1 PUSH4 0xA6F9DAE1 EQ PUSH2 0x3B JUMPI DUP1 PUSH4 0xEBBC4965 EQ PUSH2 0x57 JUMPI JUMPDEST PUSH1 0x0 DUP1 REVERT JUMPDEST PUSH2 0x55 PUSH1 0x4 DUP1 CALLDATASIZE SUB DUP2 ADD SWAP1 PUSH2 0x50 SWAP2 SWAP1 PUSH2 0x31A JUMP JUMPDEST PUSH2 0x61 JUMP JUMPDEST STOP JUMPDEST PUSH2 0x5F PUSH2 0x133 JUMP JUMPDEST STOP JUMPDEST CALLER PUSH20 0xFFFFFFFFFFFFFFFFFFFFFFFFFFFFFFFFFFFFFFFF AND PUSH1 0x0 DUP1 SLOAD SWAP1 PUSH2 0x100 EXP SWAP1 DIV PUSH20 0xFFFFFFFFFFFFFFFFFFFFFFFFFFFFFFFFFFFFFFFF AND PUSH20 0xFFFFFFFFFFFFFFFFFFFFFFFFFFFFFFFFFFFFFFFF AND EQ PUSH2 0xEF JUMPI PUSH1 0x40 MLOAD PUSH32 0x8C379A000000000000000000000000000000000000000000000000000000000 DUP2 MSTORE PUSH1 0x4 ADD PUSH2 0xE6 SWAP1 PUSH2 0x3AD JUMP JUMPDEST PUSH1 0x40 MLOAD DUP1 SWAP2 SUB SWAP1 REVERT JUMPDEST DUP1 PUSH1 0x1 PUSH1 0x0 PUSH2 0x100 EXP DUP2 SLOAD DUP2 PUSH20 0xFFFFFFFFFFFFFFFFFFFFFFFFFFFFFFFFFFFFFFFF MUL NOT AND SWAP1 DUP4 PUSH20 0xFFFFFFFFFFFFFFFFFFFFFFFFFFFFFFFFFFFFFFFF AND MUL OR SWAP1 SSTORE POP POP JUMP JUMPDEST PUSH1 0x1 PUSH1 0x0 SWAP1 SLOAD SWAP1 PUSH2 0x100 EXP SWAP1 DIV PUSH20 0xFFFFFFFFFFFFFFFFFFFFFFFFFFFFFFFFFFFFFFFF AND PUSH20 0xFFFFFFFFFFFFFFFFFFFFFFFFFFFFFFFFFFFFFFFF AND CALLER PUSH20 0xFFFFFFFFFFFFFFFFFFFFFFFFFFFFFFFFFFFFFFFF AND EQ PUSH2 0x1C3 JUMPI PUSH1 0x40 MLOAD PUSH32 0x8C379A000000000000000000000000000000000000000000000000000000000 DUP2 MSTORE PUSH1 0x4 ADD PUSH2 0x1BA SWAP1 PUSH2 0x38D JUMP JUMPDEST PUSH1 0x40 MLOAD DUP1 SWAP2 SUB SWAP1 REVERT JUMPDEST PUSH1 0x1 PUSH1 0x0 SWAP1 SLOAD SWAP1 PUSH2 0x100 EXP SWAP1 DIV PUSH20 0xFFFFFFFFFFFFFFFFFFFFFFFFFFFFFFFFFFFFFFFF AND PUSH20 0xFFFFFFFFFFFFFFFFFFFFFFFFFFFFFFFFFFFFFFFF AND PUSH1 0x0 DUP1 SLOAD SWAP1 PUSH2 0x100 EXP SWAP1 DIV PUSH20 0xFFFFFFFFFFFFFFFFFFFFFFFFFFFFFFFFFFFFFFFF AND PUSH20 0xFFFFFFFFFFFFFFFFFFFFFFFFFFFFFFFFFFFFFFFF AND PUSH32 0x5C486528EC3E3F0EA91181CFF8116F02BFA350E03B8B6F12E00765ADBB5AF85C PUSH1 0x40 MLOAD PUSH1 0x40 MLOAD DUP1 SWAP2 SUB SWAP1 LOG3 PUSH1 0x1 PUSH1 0x0 SWAP1 SLOAD SWAP1 PUSH2 0x100 EXP SWAP1 DIV PUSH20 0xFFFFFFFFFFFFFFFFFFFFFFFFFFFFFFFFFFFFFFFF AND PUSH1 0x0 DUP1 PUSH2 0x100 EXP DUP2 SLOAD DUP2 PUSH20 0xFFFFFFFFFFFFFFFFFFFFFFFFFFFFFFFFFFFFFFFF MUL NOT AND SWAP1 DUP4 PUSH20 0xFFFFFFFFFFFFFFFFFFFFFFFFFFFFFFFFFFFFFFFF AND MUL OR SWAP1 SSTORE POP PUSH1 0x0 PUSH1 0x1 PUSH1 0x0 PUSH2 0x100 EXP DUP2 SLOAD DUP2 PUSH20 0xFFFFFFFFFFFFFFFFFFFFFFFFFFFFFFFFFFFFFFFF MUL NOT AND SWAP1 DUP4 PUSH20 0xFFFFFFFFFFFFFFFFFFFFFFFFFFFFFFFFFFFFFFFF AND MUL OR SWAP1 SSTORE POP JUMP JUMPDEST PUSH1 0x0 DUP2 CALLDATALOAD SWAP1 POP PUSH2 0x314 DUP2 PUSH2 0x467 JUMP JUMPDEST SWAP3 SWAP2 POP POP JUMP JUMPDEST PUSH1 0x0 PUSH1 0x20 DUP3 DUP5 SUB SLT ISZERO PUSH2 0x330 JUMPI PUSH2 0x32F PUSH2 0x410 JUMP JUMPDEST JUMPDEST PUSH1 0x0 PUSH2 0x33E DUP5 DUP3 DUP6 ADD PUSH2 0x305 JUMP JUMPDEST SWAP2 POP POP SWAP3 SWAP2 POP POP JUMP JUMPDEST PUSH1 0x0 PUSH2 0x354 PUSH1 0x20 DUP4 PUSH2 0x3CD JUMP JUMPDEST SWAP2 POP PUSH2 0x35F DUP3 PUSH2 0x415 JUMP JUMPDEST PUSH1 0x20 DUP3 ADD SWAP1 POP SWAP2 SWAP1 POP JUMP JUMPDEST PUSH1 0x0 PUSH2 0x377 PUSH1 0x17 DUP4 PUSH2 0x3CD JUMP JUMPDEST SWAP2 POP PUSH2 0x382 DUP3 PUSH2 0x43E JUMP JUMPDEST PUSH1 0x20 DUP3 ADD SWAP1 POP SWAP2 SWAP1 POP JUMP JUMPDEST PUSH1 0x0 PUSH1 0x20 DUP3 ADD SWAP1 POP DUP2 DUP2 SUB PUSH1 0x0 DUP4 ADD MSTORE PUSH2 0x3A6 DUP2 PUSH2 0x347 JUMP JUMPDEST SWAP1 POP SWAP2 SWAP1 POP JUMP JUMPDEST PUSH1 0x0 PUSH1 0x20 DUP3 ADD SWAP1 POP DUP2 DUP2 SUB PUSH1 0x0 DUP4 ADD MSTORE PUSH2 0x3C6 DUP2 PUSH2 0x36A JUMP JUMPDEST SWAP1 POP SWAP2 SWAP1 POP JUMP JUMPDEST PUSH1 0x0 DUP3 DUP3 MSTORE PUSH1 0x20 DUP3 ADD SWAP1 POP SWAP3 SWAP2 POP POP JUMP JUMPDEST PUSH1 0x0 PUSH2 0x3E9 DUP3 PUSH2 0x3F0 JUMP JUMPDEST SWAP1 POP SWAP2 SWAP1 POP JUMP JUMPDEST PUSH1 0x0 PUSH20 0xFFFFFFFFFFFFFFFFFFFFFFFFFFFFFFFFFFFFFFFF DUP3 AND SWAP1 POP SWAP2 SWAP1 POP JUMP JUMPDEST PUSH1 0x0 DUP1 REVERT JUMPDEST PUSH32 0x4F6E6C79206E6577206173736967656E64206F776E65722063616C6C20697421 PUSH1 0x0 DUP3 ADD MSTORE POP JUMP JUMPDEST PUSH32 0x4F6E6C79204F776E65722063616E2063616C6C20697421000000000000000000 PUSH1 0x0 DUP3 ADD MSTORE POP JUMP JUMPDEST PUSH2 0x470 DUP2 PUSH2 0x3DE JUMP JUMPDEST DUP2 EQ PUSH2 0x47B JUMPI PUSH1 0x0 DUP1 REVERT JUMPDEST POP JUMP INVALID LOG2 PUSH5 0x6970667358 0x22 SLT KECCAK256 0xC3 DUP16 0xF7 0xD4 0xF6 0x2D PUSH9 0x9430832B3B1EC26576 0xC3 GT PUSH2 0xA35B 0xDE SWAP13 0xEE 0xEA CALLER 0x5D CHAINID 0x21 NUMBER DUP9 CALL PUSH5 0x736F6C6343 STOP ADDMOD SMOD STOP CALLER "
				},
				"gasEstimates": {
					"creation": {
						"codeDepositCost": "240800",
						"executionCost": "24547",
						"totalCost": "265347"
					},
					"external": {
						"acceptOwner()": "58798",
						"changeOwner(address)": "26867"
					}
				},
				"methodIdentifiers": {
					"acceptOwner()": "ebbc4965",
					"changeOwner(address)": "a6f9dae1"
				}
			},
			"storageLayout": {
				"storage": [
					{
						"astId": 90,
						"contract": "erc_20_std.sol:OwnerShip",
						"label": "contractOwner",
						"offset": 0,
						"slot": "0",
						"type": "t_address"
					},
					{
						"astId": 92,
						"contract": "erc_20_std.sol:OwnerShip",
						"label": "newOwner",
						"offset": 0,
						"slot": "1",
						"type": "t_address"
					}
				],
				"types": {
					"t_address": {
						"encoding": "inplace",
						"label": "address",
						"numberOfBytes": "20"
					}
				}
			},
			"userdoc": {
				"kind": "user",
				"methods": {},
				"version": 1
			}
		}
	}
}