{
	"ShoppingStore.sol": {
		"DCStore": {
			"abi": [
				{
					"inputs": [],
					"stateMutability": "nonpayable",
					"type": "constructor"
				},
				{
					"inputs": [
						{
							"internalType": "address",
							"name": "buer_address",
							"type": "address"
						},
						{
							"internalType": "uint256",
							"name": "_productId",
							"type": "uint256"
						},
						{
							"internalType": "address",
							"name": "_storeAddress",
							"type": "address"
						},
						{
							"internalType": "uint256",
							"name": "_quantity",
							"type": "uint256"
						}
					],
					"name": "addToCart",
					"outputs": [],
					"stateMutability": "nonpayable",
					"type": "function"
				},
				{
					"inputs": [
						{
							"internalType": "address",
							"name": "",
							"type": "address"
						},
						{
							"internalType": "uint256",
							"name": "",
							"type": "uint256"
						}
					],
					"name": "cartList",
					"outputs": [
						{
							"internalType": "uint256",
							"name": "",
							"type": "uint256"
						}
					],
					"stateMutability": "view",
					"type": "function"
				},
				{
					"inputs": [
						{
							"internalType": "string",
							"name": "_proName",
							"type": "string"
						},
						{
							"internalType": "uint256",
							"name": "_price",
							"type": "uint256"
						},
						{
							"internalType": "uint256",
							"name": "_quantity",
							"type": "uint256"
						}
					],
					"name": "createPorduct",
					"outputs": [],
					"stateMutability": "nonpayable",
					"type": "function"
				},
				{
					"inputs": [
						{
							"internalType": "string",
							"name": "_storeName",
							"type": "string"
						}
					],
					"name": "createStore",
					"outputs": [],
					"stateMutability": "payable",
					"type": "function"
				},
				{
					"inputs": [],
					"name": "getContractBalance",
					"outputs": [
						{
							"internalType": "uint256",
							"name": "",
							"type": "uint256"
						}
					],
					"stateMutability": "view",
					"type": "function"
				},
				{
					"inputs": [],
					"name": "manager",
					"outputs": [
						{
							"internalType": "address",
							"name": "",
							"type": "address"
						}
					],
					"stateMutability": "view",
					"type": "function"
				},
				{
					"inputs": [
						{
							"internalType": "address",
							"name": "",
							"type": "address"
						}
					],
					"name": "storesList",
					"outputs": [
						{
							"internalType": "string",
							"name": "storeName",
							"type": "string"
						},
						{
							"internalType": "address",
							"name": "owner",
							"type": "address"
						},
						{
							"internalType": "uint256",
							"name": "itemID",
							"type": "uint256"
						}
					],
					"stateMutability": "view",
					"type": "function"
				}
			],
			"devdoc": {
				"kind": "dev",
				"methods": {},
				"version": 1
			},
			"evm": {
				"assembly": "    /* \"ShoppingStore.sol\":80:2146  contract DCStore {\r... */\n  mstore(0x40, 0x80)\n    /* \"ShoppingStore.sol\":515:567  constructor(){\r... */\n  callvalue\n  dup1\n  iszero\n  tag_1\n  jumpi\n  0x00\n  dup1\n  revert\ntag_1:\n  pop\n    /* \"ShoppingStore.sol\":549:559  msg.sender */\n  caller\n    /* \"ShoppingStore.sol\":539:546  manager */\n  0x00\n  dup1\n    /* \"ShoppingStore.sol\":539:559  manager = msg.sender */\n  0x0100\n  exp\n  dup2\n  sload\n  dup2\n  0xffffffffffffffffffffffffffffffffffffffff\n  mul\n  not\n  and\n  swap1\n  dup4\n  0xffffffffffffffffffffffffffffffffffffffff\n  and\n  mul\n  or\n  swap1\n  sstore\n  pop\n    /* \"ShoppingStore.sol\":80:2146  contract DCStore {\r... */\n  dataSize(sub_0)\n  dup1\n  dataOffset(sub_0)\n  0x00\n  codecopy\n  0x00\n  return\nstop\n\nsub_0: assembly {\n        /* \"ShoppingStore.sol\":80:2146  contract DCStore {\r... */\n      mstore(0x40, 0x80)\n      jumpi(tag_1, lt(calldatasize, 0x04))\n      shr(0xe0, calldataload(0x00))\n      dup1\n      0xb1359145\n      gt\n      tag_9\n      jumpi\n      dup1\n      0xb1359145\n      eq\n      tag_5\n      jumpi\n      dup1\n      0xd0e04fe3\n      eq\n      tag_6\n      jumpi\n      dup1\n      0xd49bac1a\n      eq\n      tag_7\n      jumpi\n      dup1\n      0xf4defea3\n      eq\n      tag_8\n      jumpi\n      jump(tag_1)\n    tag_9:\n      dup1\n      0x481c6a75\n      eq\n      tag_2\n      jumpi\n      dup1\n      0x6f9fb98a\n      eq\n      tag_3\n      jumpi\n      dup1\n      0x89db5872\n      eq\n      tag_4\n      jumpi\n    tag_1:\n      0x00\n      dup1\n      revert\n        /* \"ShoppingStore.sol\":103:125  address public manager */\n    tag_2:\n      callvalue\n      dup1\n      iszero\n      tag_10\n      jumpi\n      0x00\n      dup1\n      revert\n    tag_10:\n      pop\n      tag_11\n      tag_12\n      jump\t// in\n    tag_11:\n      mload(0x40)\n      tag_13\n      swap2\n      swap1\n      tag_14\n      jump\t// in\n    tag_13:\n      mload(0x40)\n      dup1\n      swap2\n      sub\n      swap1\n      return\n        /* \"ShoppingStore.sol\":1216:1331  function getContractBalance () public view onlyManager returns(uint){\r... */\n    tag_3:\n      callvalue\n      dup1\n      iszero\n      tag_15\n      jumpi\n      0x00\n      dup1\n      revert\n    tag_15:\n      pop\n      tag_16\n      tag_17\n      jump\t// in\n    tag_16:\n      mload(0x40)\n      tag_18\n      swap2\n      swap1\n      tag_19\n      jump\t// in\n    tag_18:\n      mload(0x40)\n      dup1\n      swap2\n      sub\n      swap1\n      return\n        /* \"ShoppingStore.sol\":1341:1737  function createPorduct(string memory _proName, uint _price,  uint _quantity) public {\r... */\n    tag_4:\n      callvalue\n      dup1\n      iszero\n      tag_20\n      jumpi\n      0x00\n      dup1\n      revert\n    tag_20:\n      pop\n      tag_21\n      0x04\n      dup1\n      calldatasize\n      sub\n      dup2\n      add\n      swap1\n      tag_22\n      swap2\n      swap1\n      tag_23\n      jump\t// in\n    tag_22:\n      tag_24\n      jump\t// in\n    tag_21:\n      stop\n        /* \"ShoppingStore.sol\":387:433  mapping(address=>StoresList) public storesList */\n    tag_5:\n      callvalue\n      dup1\n      iszero\n      tag_25\n      jumpi\n      0x00\n      dup1\n      revert\n    tag_25:\n      pop\n      tag_26\n      0x04\n      dup1\n      calldatasize\n      sub\n      dup2\n      add\n      swap1\n      tag_27\n      swap2\n      swap1\n      tag_28\n      jump\t// in\n    tag_27:\n      tag_29\n      jump\t// in\n    tag_26:\n      mload(0x40)\n      tag_30\n      swap4\n      swap3\n      swap2\n      swap1\n      tag_31\n      jump\t// in\n    tag_30:\n      mload(0x40)\n      dup1\n      swap2\n      sub\n      swap1\n      return\n        /* \"ShoppingStore.sol\":706:1208  function createStore(string memory _storeName) public payable {\r... */\n    tag_6:\n      tag_32\n      0x04\n      dup1\n      calldatasize\n      sub\n      dup2\n      add\n      swap1\n      tag_33\n      swap2\n      swap1\n      tag_34\n      jump\t// in\n    tag_33:\n      tag_35\n      jump\t// in\n    tag_32:\n      stop\n        /* \"ShoppingStore.sol\":447:500  mapping(address=>mapping(uint=>uint)) public cartList */\n    tag_7:\n      callvalue\n      dup1\n      iszero\n      tag_36\n      jumpi\n      0x00\n      dup1\n      revert\n    tag_36:\n      pop\n      tag_37\n      0x04\n      dup1\n      calldatasize\n      sub\n      dup2\n      add\n      swap1\n      tag_38\n      swap2\n      swap1\n      tag_39\n      jump\t// in\n    tag_38:\n      tag_40\n      jump\t// in\n    tag_37:\n      mload(0x40)\n      tag_41\n      swap2\n      swap1\n      tag_19\n      jump\t// in\n    tag_41:\n      mload(0x40)\n      dup1\n      swap2\n      sub\n      swap1\n      return\n        /* \"ShoppingStore.sol\":1746:2139  function addToCart(address buer_address, uint _productId, address _storeAddress ,uint _quantity ) public {\r... */\n    tag_8:\n      callvalue\n      dup1\n      iszero\n      tag_42\n      jumpi\n      0x00\n      dup1\n      revert\n    tag_42:\n      pop\n      tag_43\n      0x04\n      dup1\n      calldatasize\n      sub\n      dup2\n      add\n      swap1\n      tag_44\n      swap2\n      swap1\n      tag_45\n      jump\t// in\n    tag_44:\n      tag_46\n      jump\t// in\n    tag_43:\n      stop\n        /* \"ShoppingStore.sol\":103:125  address public manager */\n    tag_12:\n      0x00\n      dup1\n      sload\n      swap1\n      0x0100\n      exp\n      swap1\n      div\n      0xffffffffffffffffffffffffffffffffffffffff\n      and\n      dup2\n      jump\t// out\n        /* \"ShoppingStore.sol\":1216:1331  function getContractBalance () public view onlyManager returns(uint){\r... */\n    tag_17:\n        /* \"ShoppingStore.sol\":1279:1283  uint */\n      0x00\n        /* \"ShoppingStore.sol\":630:637  manager */\n      dup1\n      0x00\n      swap1\n      sload\n      swap1\n      0x0100\n      exp\n      swap1\n      div\n      0xffffffffffffffffffffffffffffffffffffffff\n      and\n        /* \"ShoppingStore.sol\":616:637  msg.sender == manager */\n      0xffffffffffffffffffffffffffffffffffffffff\n      and\n        /* \"ShoppingStore.sol\":616:626  msg.sender */\n      caller\n        /* \"ShoppingStore.sol\":616:637  msg.sender == manager */\n      0xffffffffffffffffffffffffffffffffffffffff\n      and\n      eq\n        /* \"ShoppingStore.sol\":608:677  require(msg.sender == manager, \"Only manager can perform this task.\") */\n      tag_48\n      jumpi\n      mload(0x40)\n      0x08c379a000000000000000000000000000000000000000000000000000000000\n      dup2\n      mstore\n      0x04\n      add\n      tag_49\n      swap1\n      tag_50\n      jump\t// in\n    tag_49:\n      mload(0x40)\n      dup1\n      swap2\n      sub\n      swap1\n      revert\n    tag_48:\n        /* \"ShoppingStore.sol\":1302:1323  address(this).balance */\n      selfbalance\n        /* \"ShoppingStore.sol\":1295:1323  return address(this).balance */\n      swap1\n      pop\n        /* \"ShoppingStore.sol\":1216:1331  function getContractBalance () public view onlyManager returns(uint){\r... */\n      swap1\n      jump\t// out\n        /* \"ShoppingStore.sol\":1341:1737  function createPorduct(string memory _proName, uint _price,  uint _quantity) public {\r... */\n    tag_24:\n        /* \"ShoppingStore.sol\":1439:1465  StoresList storage myStore */\n      0x00\n        /* \"ShoppingStore.sol\":1468:1478  storesList */\n      0x01\n        /* \"ShoppingStore.sol\":1468:1490  storesList[msg.sender] */\n      0x00\n        /* \"ShoppingStore.sol\":1479:1489  msg.sender */\n      caller\n        /* \"ShoppingStore.sol\":1468:1490  storesList[msg.sender] */\n      0xffffffffffffffffffffffffffffffffffffffff\n      and\n      0xffffffffffffffffffffffffffffffffffffffff\n      and\n      dup2\n      mstore\n      0x20\n      add\n      swap1\n      dup2\n      mstore\n      0x20\n      add\n      0x00\n      keccak256\n        /* \"ShoppingStore.sol\":1439:1490  StoresList storage myStore = storesList[msg.sender] */\n      swap1\n      pop\n        /* \"ShoppingStore.sol\":1504:1532  Products storage  newProduct */\n      0x00\n        /* \"ShoppingStore.sol\":1535:1542  myStore */\n      dup2\n        /* \"ShoppingStore.sol\":1535:1551  myStore.products */\n      0x03\n      add\n        /* \"ShoppingStore.sol\":1535:1567  myStore.products[myStore.itemID] */\n      0x00\n        /* \"ShoppingStore.sol\":1552:1559  myStore */\n      dup4\n        /* \"ShoppingStore.sol\":1552:1566  myStore.itemID */\n      0x02\n      add\n      sload\n        /* \"ShoppingStore.sol\":1535:1567  myStore.products[myStore.itemID] */\n      dup2\n      mstore\n      0x20\n      add\n      swap1\n      dup2\n      mstore\n      0x20\n      add\n      0x00\n      keccak256\n        /* \"ShoppingStore.sol\":1504:1567  Products storage  newProduct = myStore.products[myStore.itemID] */\n      swap1\n      pop\n        /* \"ShoppingStore.sol\":1607:1615  _proName */\n      dup5\n        /* \"ShoppingStore.sol\":1582:1592  newProduct */\n      dup2\n        /* \"ShoppingStore.sol\":1582:1604  newProduct.productName */\n      0x00\n      add\n        /* \"ShoppingStore.sol\":1582:1615  newProduct.productName = _proName */\n      swap1\n      dup1\n      mload\n      swap1\n      0x20\n      add\n      swap1\n      tag_53\n      swap3\n      swap2\n      swap1\n      tag_54\n      jump\t// in\n    tag_53:\n      pop\n        /* \"ShoppingStore.sol\":1648:1654  _price */\n      dup4\n        /* \"ShoppingStore.sol\":1629:1639  newProduct */\n      dup2\n        /* \"ShoppingStore.sol\":1629:1645  newProduct.price */\n      0x01\n      add\n        /* \"ShoppingStore.sol\":1629:1654  newProduct.price = _price */\n      dup2\n      swap1\n      sstore\n      pop\n        /* \"ShoppingStore.sol\":1690:1699  _quantity */\n      dup3\n        /* \"ShoppingStore.sol\":1668:1678  newProduct */\n      dup2\n        /* \"ShoppingStore.sol\":1668:1687  newProduct.quantity */\n      0x02\n      add\n        /* \"ShoppingStore.sol\":1668:1699  newProduct.quantity = _quantity */\n      dup2\n      swap1\n      sstore\n      pop\n        /* \"ShoppingStore.sol\":1713:1720  myStore */\n      dup2\n        /* \"ShoppingStore.sol\":1713:1727  myStore.itemID */\n      0x02\n      add\n      0x00\n        /* \"ShoppingStore.sol\":1713:1729  myStore.itemID++ */\n      dup2\n      sload\n      dup1\n      swap3\n      swap2\n      swap1\n      tag_55\n      swap1\n      tag_56\n      jump\t// in\n    tag_55:\n      swap2\n      swap1\n      pop\n      sstore\n      pop\n        /* \"ShoppingStore.sol\":1425:1737  {\r... */\n      pop\n      pop\n        /* \"ShoppingStore.sol\":1341:1737  function createPorduct(string memory _proName, uint _price,  uint _quantity) public {\r... */\n      pop\n      pop\n      pop\n      jump\t// out\n        /* \"ShoppingStore.sol\":387:433  mapping(address=>StoresList) public storesList */\n    tag_29:\n      mstore(0x20, 0x01)\n      dup1\n      0x00\n      mstore\n      keccak256(0x00, 0x40)\n      0x00\n      swap2\n      pop\n      swap1\n      pop\n      dup1\n      0x00\n      add\n      dup1\n      sload\n      tag_57\n      swap1\n      tag_58\n      jump\t// in\n    tag_57:\n      dup1\n      0x1f\n      add\n      0x20\n      dup1\n      swap2\n      div\n      mul\n      0x20\n      add\n      mload(0x40)\n      swap1\n      dup2\n      add\n      0x40\n      mstore\n      dup1\n      swap3\n      swap2\n      swap1\n      dup2\n      dup2\n      mstore\n      0x20\n      add\n      dup3\n      dup1\n      sload\n      tag_59\n      swap1\n      tag_58\n      jump\t// in\n    tag_59:\n      dup1\n      iszero\n      tag_60\n      jumpi\n      dup1\n      0x1f\n      lt\n      tag_61\n      jumpi\n      0x0100\n      dup1\n      dup4\n      sload\n      div\n      mul\n      dup4\n      mstore\n      swap2\n      0x20\n      add\n      swap2\n      jump(tag_60)\n    tag_61:\n      dup3\n      add\n      swap2\n      swap1\n      0x00\n      mstore\n      keccak256(0x00, 0x20)\n      swap1\n    tag_62:\n      dup2\n      sload\n      dup2\n      mstore\n      swap1\n      0x01\n      add\n      swap1\n      0x20\n      add\n      dup1\n      dup4\n      gt\n      tag_62\n      jumpi\n      dup3\n      swap1\n      sub\n      0x1f\n      and\n      dup3\n      add\n      swap2\n    tag_60:\n      pop\n      pop\n      pop\n      pop\n      pop\n      swap1\n      dup1\n      0x01\n      add\n      0x00\n      swap1\n      sload\n      swap1\n      0x0100\n      exp\n      swap1\n      div\n      0xffffffffffffffffffffffffffffffffffffffff\n      and\n      swap1\n      dup1\n      0x02\n      add\n      sload\n      swap1\n      pop\n      dup4\n      jump\t// out\n        /* \"ShoppingStore.sol\":706:1208  function createStore(string memory _storeName) public payable {\r... */\n    tag_35:\n        /* \"ShoppingStore.sol\":801:808  manager */\n      0x00\n      dup1\n      sload\n      swap1\n      0x0100\n      exp\n      swap1\n      div\n      0xffffffffffffffffffffffffffffffffffffffff\n      and\n        /* \"ShoppingStore.sol\":787:808  msg.sender != manager */\n      0xffffffffffffffffffffffffffffffffffffffff\n      and\n        /* \"ShoppingStore.sol\":787:797  msg.sender */\n      caller\n        /* \"ShoppingStore.sol\":787:808  msg.sender != manager */\n      0xffffffffffffffffffffffffffffffffffffffff\n      and\n      eq\n      iszero\n        /* \"ShoppingStore.sol\":779:873  require(msg.sender != manager , \"You are manager you cant create store with current address.\") */\n      tag_64\n      jumpi\n      mload(0x40)\n      0x08c379a000000000000000000000000000000000000000000000000000000000\n      dup2\n      mstore\n      0x04\n      add\n      tag_65\n      swap1\n      tag_66\n      jump\t// in\n    tag_65:\n      mload(0x40)\n      dup1\n      swap2\n      sub\n      swap1\n      revert\n    tag_64:\n        /* \"ShoppingStore.sol\":905:912  100 wei */\n      0x64\n        /* \"ShoppingStore.sol\":892:901  msg.value */\n      callvalue\n        /* \"ShoppingStore.sol\":892:912  msg.value == 100 wei */\n      eq\n        /* \"ShoppingStore.sol\":884:966  require(msg.value == 100 wei, \"You have to pay 100 wei fee to create a new store\") */\n      tag_67\n      jumpi\n      mload(0x40)\n      0x08c379a000000000000000000000000000000000000000000000000000000000\n      dup2\n      mstore\n      0x04\n      add\n      tag_68\n      swap1\n      tag_69\n      jump\t// in\n    tag_68:\n      mload(0x40)\n      dup1\n      swap2\n      sub\n      swap1\n      revert\n    tag_67:\n        /* \"ShoppingStore.sol\":977:1000  address payable sendFee */\n      0x00\n        /* \"ShoppingStore.sol\":1011:1018  manager */\n      dup1\n      0x00\n      swap1\n      sload\n      swap1\n      0x0100\n      exp\n      swap1\n      div\n      0xffffffffffffffffffffffffffffffffffffffff\n      and\n        /* \"ShoppingStore.sol\":977:1019  address payable sendFee = payable(manager) */\n      swap1\n      pop\n        /* \"ShoppingStore.sol\":1030:1057  StoresList storage newStore */\n      0x00\n        /* \"ShoppingStore.sol\":1060:1070  storesList */\n      0x01\n        /* \"ShoppingStore.sol\":1060:1082  storesList[msg.sender] */\n      0x00\n        /* \"ShoppingStore.sol\":1071:1081  msg.sender */\n      caller\n        /* \"ShoppingStore.sol\":1060:1082  storesList[msg.sender] */\n      0xffffffffffffffffffffffffffffffffffffffff\n      and\n      0xffffffffffffffffffffffffffffffffffffffff\n      and\n      dup2\n      mstore\n      0x20\n      add\n      swap1\n      dup2\n      mstore\n      0x20\n      add\n      0x00\n      keccak256\n        /* \"ShoppingStore.sol\":1030:1082  StoresList storage newStore = storesList[msg.sender] */\n      swap1\n      pop\n        /* \"ShoppingStore.sol\":1114:1124  _storeName */\n      dup3\n        /* \"ShoppingStore.sol\":1093:1101  newStore */\n      dup2\n        /* \"ShoppingStore.sol\":1093:1111  newStore.storeName */\n      0x00\n      add\n        /* \"ShoppingStore.sol\":1093:1124  newStore.storeName = _storeName */\n      swap1\n      dup1\n      mload\n      swap1\n      0x20\n      add\n      swap1\n      tag_70\n      swap3\n      swap2\n      swap1\n      tag_54\n      jump\t// in\n    tag_70:\n      pop\n        /* \"ShoppingStore.sol\":1152:1162  msg.sender */\n      caller\n        /* \"ShoppingStore.sol\":1135:1143  newStore */\n      dup2\n        /* \"ShoppingStore.sol\":1135:1149  newStore.owner */\n      0x01\n      add\n      0x00\n        /* \"ShoppingStore.sol\":1135:1162  newStore.owner = msg.sender */\n      0x0100\n      exp\n      dup2\n      sload\n      dup2\n      0xffffffffffffffffffffffffffffffffffffffff\n      mul\n      not\n      and\n      swap1\n      dup4\n      0xffffffffffffffffffffffffffffffffffffffff\n      and\n      mul\n      or\n      swap1\n      sstore\n      pop\n        /* \"ShoppingStore.sol\":1173:1180  sendFee */\n      dup2\n        /* \"ShoppingStore.sol\":1173:1189  sendFee.transfer */\n      0xffffffffffffffffffffffffffffffffffffffff\n      and\n        /* \"ShoppingStore.sol\":1173:1200  sendFee.transfer(msg.value) */\n      0x08fc\n        /* \"ShoppingStore.sol\":1190:1199  msg.value */\n      callvalue\n        /* \"ShoppingStore.sol\":1173:1200  sendFee.transfer(msg.value) */\n      swap1\n      dup2\n      iszero\n      mul\n      swap1\n      mload(0x40)\n      0x00\n      mload(0x40)\n      dup1\n      dup4\n      sub\n      dup2\n      dup6\n      dup9\n      dup9\n      call\n      swap4\n      pop\n      pop\n      pop\n      pop\n      iszero\n      dup1\n      iszero\n      tag_72\n      jumpi\n      returndatasize\n      0x00\n      dup1\n      returndatacopy\n      revert(0x00, returndatasize)\n    tag_72:\n      pop\n        /* \"ShoppingStore.sol\":768:1208  {\r... */\n      pop\n      pop\n        /* \"ShoppingStore.sol\":706:1208  function createStore(string memory _storeName) public payable {\r... */\n      pop\n      jump\t// out\n        /* \"ShoppingStore.sol\":447:500  mapping(address=>mapping(uint=>uint)) public cartList */\n    tag_40:\n      mstore(0x20, 0x02)\n      dup2\n      0x00\n      mstore\n      mstore(0x20, keccak256(0x00, 0x40))\n      dup1\n      0x00\n      mstore\n      keccak256(0x00, 0x40)\n      0x00\n      swap2\n      pop\n      swap2\n      pop\n      pop\n      sload\n      dup2\n      jump\t// out\n        /* \"ShoppingStore.sol\":1746:2139  function addToCart(address buer_address, uint _productId, address _storeAddress ,uint _quantity ) public {\r... */\n    tag_46:\n        /* \"ShoppingStore.sol\":1861:1889  StoresList storage fineStore */\n      0x00\n        /* \"ShoppingStore.sol\":1893:1903  storesList */\n      0x01\n        /* \"ShoppingStore.sol\":1893:1918  storesList[_storeAddress] */\n      0x00\n        /* \"ShoppingStore.sol\":1904:1917  _storeAddress */\n      dup5\n        /* \"ShoppingStore.sol\":1893:1918  storesList[_storeAddress] */\n      0xffffffffffffffffffffffffffffffffffffffff\n      and\n      0xffffffffffffffffffffffffffffffffffffffff\n      and\n      dup2\n      mstore\n      0x20\n      add\n      swap1\n      dup2\n      mstore\n      0x20\n      add\n      0x00\n      keccak256\n        /* \"ShoppingStore.sol\":1861:1918  StoresList storage fineStore =  storesList[_storeAddress] */\n      swap1\n      pop\n        /* \"ShoppingStore.sol\":1957:1970  _storeAddress */\n      dup3\n        /* \"ShoppingStore.sol\":1937:1970  fineStore.owner  == _storeAddress */\n      0xffffffffffffffffffffffffffffffffffffffff\n      and\n        /* \"ShoppingStore.sol\":1937:1946  fineStore */\n      dup2\n        /* \"ShoppingStore.sol\":1937:1952  fineStore.owner */\n      0x01\n      add\n      0x00\n      swap1\n      sload\n      swap1\n      0x0100\n      exp\n      swap1\n      div\n      0xffffffffffffffffffffffffffffffffffffffff\n      and\n        /* \"ShoppingStore.sol\":1937:1970  fineStore.owner  == _storeAddress */\n      0xffffffffffffffffffffffffffffffffffffffff\n      and\n      eq\n        /* \"ShoppingStore.sol\":1929:1989  require(fineStore.owner  == _storeAddress , \"Ivalid store!\") */\n      tag_74\n      jumpi\n      mload(0x40)\n      0x08c379a000000000000000000000000000000000000000000000000000000000\n      dup2\n      mstore\n      0x04\n      add\n      tag_75\n      swap1\n      tag_76\n      jump\t// in\n    tag_75:\n      mload(0x40)\n      dup1\n      swap2\n      sub\n      swap1\n      revert\n    tag_74:\n        /* \"ShoppingStore.sol\":2050:2059  _quantity */\n      dup2\n        /* \"ShoppingStore.sol\":2007:2016  fineStore */\n      dup2\n        /* \"ShoppingStore.sol\":2007:2025  fineStore.products */\n      0x03\n      add\n        /* \"ShoppingStore.sol\":2007:2037  fineStore.products[_productId] */\n      0x00\n        /* \"ShoppingStore.sol\":2026:2036  _productId */\n      dup7\n        /* \"ShoppingStore.sol\":2007:2037  fineStore.products[_productId] */\n      dup2\n      mstore\n      0x20\n      add\n      swap1\n      dup2\n      mstore\n      0x20\n      add\n      0x00\n      keccak256\n        /* \"ShoppingStore.sol\":2007:2046  fineStore.products[_productId].quantity */\n      0x02\n      add\n      sload\n        /* \"ShoppingStore.sol\":2007:2059  fineStore.products[_productId].quantity >= _quantity */\n      lt\n      iszero\n        /* \"ShoppingStore.sol\":1999:2076  require(fineStore.products[_productId].quantity >= _quantity, \"Not availble\") */\n      tag_77\n      jumpi\n      mload(0x40)\n      0x08c379a000000000000000000000000000000000000000000000000000000000\n      dup2\n      mstore\n      0x04\n      add\n      tag_78\n      swap1\n      tag_79\n      jump\t// in\n    tag_78:\n      mload(0x40)\n      dup1\n      swap2\n      sub\n      swap1\n      revert\n    tag_77:\n        /* \"ShoppingStore.sol\":2123:2132  _quantity */\n      dup2\n        /* \"ShoppingStore.sol\":2086:2094  cartList */\n      0x02\n        /* \"ShoppingStore.sol\":2086:2108  cartList[buer_address] */\n      0x00\n        /* \"ShoppingStore.sol\":2095:2107  buer_address */\n      dup8\n        /* \"ShoppingStore.sol\":2086:2108  cartList[buer_address] */\n      0xffffffffffffffffffffffffffffffffffffffff\n      and\n      0xffffffffffffffffffffffffffffffffffffffff\n      and\n      dup2\n      mstore\n      0x20\n      add\n      swap1\n      dup2\n      mstore\n      0x20\n      add\n      0x00\n      keccak256\n        /* \"ShoppingStore.sol\":2086:2120  cartList[buer_address][_productId] */\n      0x00\n        /* \"ShoppingStore.sol\":2109:2119  _productId */\n      dup7\n        /* \"ShoppingStore.sol\":2086:2120  cartList[buer_address][_productId] */\n      dup2\n      mstore\n      0x20\n      add\n      swap1\n      dup2\n      mstore\n      0x20\n      add\n      0x00\n      keccak256\n        /* \"ShoppingStore.sol\":2086:2132  cartList[buer_address][_productId] = _quantity */\n      dup2\n      swap1\n      sstore\n      pop\n        /* \"ShoppingStore.sol\":1851:2139  {\r... */\n      pop\n        /* \"ShoppingStore.sol\":1746:2139  function addToCart(address buer_address, uint _productId, address _storeAddress ,uint _quantity ) public {\r... */\n      pop\n      pop\n      pop\n      pop\n      jump\t// out\n    tag_54:\n      dup3\n      dup1\n      sload\n      tag_80\n      swap1\n      tag_58\n      jump\t// in\n    tag_80:\n      swap1\n      0x00\n      mstore\n      keccak256(0x00, 0x20)\n      swap1\n      0x1f\n      add\n      0x20\n      swap1\n      div\n      dup2\n      add\n      swap3\n      dup3\n      tag_82\n      jumpi\n      0x00\n      dup6\n      sstore\n      jump(tag_81)\n    tag_82:\n      dup3\n      0x1f\n      lt\n      tag_83\n      jumpi\n      dup1\n      mload\n      not(0xff)\n      and\n      dup4\n      dup1\n      add\n      or\n      dup6\n      sstore\n      jump(tag_81)\n    tag_83:\n      dup3\n      dup1\n      add\n      0x01\n      add\n      dup6\n      sstore\n      dup3\n      iszero\n      tag_81\n      jumpi\n      swap2\n      dup3\n      add\n    tag_84:\n      dup3\n      dup2\n      gt\n      iszero\n      tag_85\n      jumpi\n      dup3\n      mload\n      dup3\n      sstore\n      swap2\n      0x20\n      add\n      swap2\n      swap1\n      0x01\n      add\n      swap1\n      jump(tag_84)\n    tag_85:\n    tag_81:\n      pop\n      swap1\n      pop\n      tag_86\n      swap2\n      swap1\n      tag_87\n      jump\t// in\n    tag_86:\n      pop\n      swap1\n      jump\t// out\n    tag_87:\n    tag_88:\n      dup1\n      dup3\n      gt\n      iszero\n      tag_89\n      jumpi\n      0x00\n      dup2\n      0x00\n      swap1\n      sstore\n      pop\n      0x01\n      add\n      jump(tag_88)\n    tag_89:\n      pop\n      swap1\n      jump\t// out\n        /* \"#utility.yul\":7:419   */\n    tag_91:\n        /* \"#utility.yul\":85:90   */\n      0x00\n        /* \"#utility.yul\":110:176   */\n      tag_93\n        /* \"#utility.yul\":126:175   */\n      tag_94\n        /* \"#utility.yul\":168:174   */\n      dup5\n        /* \"#utility.yul\":126:175   */\n      tag_95\n      jump\t// in\n    tag_94:\n        /* \"#utility.yul\":110:176   */\n      tag_96\n      jump\t// in\n    tag_93:\n        /* \"#utility.yul\":101:176   */\n      swap1\n      pop\n        /* \"#utility.yul\":199:205   */\n      dup3\n        /* \"#utility.yul\":192:197   */\n      dup2\n        /* \"#utility.yul\":185:206   */\n      mstore\n        /* \"#utility.yul\":237:241   */\n      0x20\n        /* \"#utility.yul\":230:235   */\n      dup2\n        /* \"#utility.yul\":226:242   */\n      add\n        /* \"#utility.yul\":275:278   */\n      dup5\n        /* \"#utility.yul\":266:272   */\n      dup5\n        /* \"#utility.yul\":261:264   */\n      dup5\n        /* \"#utility.yul\":257:273   */\n      add\n        /* \"#utility.yul\":254:279   */\n      gt\n        /* \"#utility.yul\":251:363   */\n      iszero\n      tag_97\n      jumpi\n        /* \"#utility.yul\":282:361   */\n      tag_98\n      tag_99\n      jump\t// in\n    tag_98:\n        /* \"#utility.yul\":251:363   */\n    tag_97:\n        /* \"#utility.yul\":372:413   */\n      tag_100\n        /* \"#utility.yul\":406:412   */\n      dup5\n        /* \"#utility.yul\":401:404   */\n      dup3\n        /* \"#utility.yul\":396:399   */\n      dup6\n        /* \"#utility.yul\":372:413   */\n      tag_101\n      jump\t// in\n    tag_100:\n        /* \"#utility.yul\":91:419   */\n      pop\n        /* \"#utility.yul\":7:419   */\n      swap4\n      swap3\n      pop\n      pop\n      pop\n      jump\t// out\n        /* \"#utility.yul\":425:564   */\n    tag_102:\n        /* \"#utility.yul\":471:476   */\n      0x00\n        /* \"#utility.yul\":509:515   */\n      dup2\n        /* \"#utility.yul\":496:516   */\n      calldataload\n        /* \"#utility.yul\":487:516   */\n      swap1\n      pop\n        /* \"#utility.yul\":525:558   */\n      tag_104\n        /* \"#utility.yul\":552:557   */\n      dup2\n        /* \"#utility.yul\":525:558   */\n      tag_105\n      jump\t// in\n    tag_104:\n        /* \"#utility.yul\":425:564   */\n      swap3\n      swap2\n      pop\n      pop\n      jump\t// out\n        /* \"#utility.yul\":584:924   */\n    tag_106:\n        /* \"#utility.yul\":640:645   */\n      0x00\n        /* \"#utility.yul\":689:692   */\n      dup3\n        /* \"#utility.yul\":682:686   */\n      0x1f\n        /* \"#utility.yul\":674:680   */\n      dup4\n        /* \"#utility.yul\":670:687   */\n      add\n        /* \"#utility.yul\":666:693   */\n      slt\n        /* \"#utility.yul\":656:778   */\n      tag_108\n      jumpi\n        /* \"#utility.yul\":697:776   */\n      tag_109\n      tag_110\n      jump\t// in\n    tag_109:\n        /* \"#utility.yul\":656:778   */\n    tag_108:\n        /* \"#utility.yul\":814:820   */\n      dup2\n        /* \"#utility.yul\":801:821   */\n      calldataload\n        /* \"#utility.yul\":839:918   */\n      tag_111\n        /* \"#utility.yul\":914:917   */\n      dup5\n        /* \"#utility.yul\":906:912   */\n      dup3\n        /* \"#utility.yul\":899:903   */\n      0x20\n        /* \"#utility.yul\":891:897   */\n      dup7\n        /* \"#utility.yul\":887:904   */\n      add\n        /* \"#utility.yul\":839:918   */\n      tag_91\n      jump\t// in\n    tag_111:\n        /* \"#utility.yul\":830:918   */\n      swap2\n      pop\n        /* \"#utility.yul\":646:924   */\n      pop\n        /* \"#utility.yul\":584:924   */\n      swap3\n      swap2\n      pop\n      pop\n      jump\t// out\n        /* \"#utility.yul\":930:1069   */\n    tag_112:\n        /* \"#utility.yul\":976:981   */\n      0x00\n        /* \"#utility.yul\":1014:1020   */\n      dup2\n        /* \"#utility.yul\":1001:1021   */\n      calldataload\n        /* \"#utility.yul\":992:1021   */\n      swap1\n      pop\n        /* \"#utility.yul\":1030:1063   */\n      tag_114\n        /* \"#utility.yul\":1057:1062   */\n      dup2\n        /* \"#utility.yul\":1030:1063   */\n      tag_115\n      jump\t// in\n    tag_114:\n        /* \"#utility.yul\":930:1069   */\n      swap3\n      swap2\n      pop\n      pop\n      jump\t// out\n        /* \"#utility.yul\":1075:1404   */\n    tag_28:\n        /* \"#utility.yul\":1134:1140   */\n      0x00\n        /* \"#utility.yul\":1183:1185   */\n      0x20\n        /* \"#utility.yul\":1171:1180   */\n      dup3\n        /* \"#utility.yul\":1162:1169   */\n      dup5\n        /* \"#utility.yul\":1158:1181   */\n      sub\n        /* \"#utility.yul\":1154:1186   */\n      slt\n        /* \"#utility.yul\":1151:1270   */\n      iszero\n      tag_117\n      jumpi\n        /* \"#utility.yul\":1189:1268   */\n      tag_118\n      tag_119\n      jump\t// in\n    tag_118:\n        /* \"#utility.yul\":1151:1270   */\n    tag_117:\n        /* \"#utility.yul\":1309:1310   */\n      0x00\n        /* \"#utility.yul\":1334:1387   */\n      tag_120\n        /* \"#utility.yul\":1379:1386   */\n      dup5\n        /* \"#utility.yul\":1370:1376   */\n      dup3\n        /* \"#utility.yul\":1359:1368   */\n      dup6\n        /* \"#utility.yul\":1355:1377   */\n      add\n        /* \"#utility.yul\":1334:1387   */\n      tag_102\n      jump\t// in\n    tag_120:\n        /* \"#utility.yul\":1324:1387   */\n      swap2\n      pop\n        /* \"#utility.yul\":1280:1397   */\n      pop\n        /* \"#utility.yul\":1075:1404   */\n      swap3\n      swap2\n      pop\n      pop\n      jump\t// out\n        /* \"#utility.yul\":1410:1884   */\n    tag_39:\n        /* \"#utility.yul\":1478:1484   */\n      0x00\n        /* \"#utility.yul\":1486:1492   */\n      dup1\n        /* \"#utility.yul\":1535:1537   */\n      0x40\n        /* \"#utility.yul\":1523:1532   */\n      dup4\n        /* \"#utility.yul\":1514:1521   */\n      dup6\n        /* \"#utility.yul\":1510:1533   */\n      sub\n        /* \"#utility.yul\":1506:1538   */\n      slt\n        /* \"#utility.yul\":1503:1622   */\n      iszero\n      tag_122\n      jumpi\n        /* \"#utility.yul\":1541:1620   */\n      tag_123\n      tag_119\n      jump\t// in\n    tag_123:\n        /* \"#utility.yul\":1503:1622   */\n    tag_122:\n        /* \"#utility.yul\":1661:1662   */\n      0x00\n        /* \"#utility.yul\":1686:1739   */\n      tag_124\n        /* \"#utility.yul\":1731:1738   */\n      dup6\n        /* \"#utility.yul\":1722:1728   */\n      dup3\n        /* \"#utility.yul\":1711:1720   */\n      dup7\n        /* \"#utility.yul\":1707:1729   */\n      add\n        /* \"#utility.yul\":1686:1739   */\n      tag_102\n      jump\t// in\n    tag_124:\n        /* \"#utility.yul\":1676:1739   */\n      swap3\n      pop\n        /* \"#utility.yul\":1632:1749   */\n      pop\n        /* \"#utility.yul\":1788:1790   */\n      0x20\n        /* \"#utility.yul\":1814:1867   */\n      tag_125\n        /* \"#utility.yul\":1859:1866   */\n      dup6\n        /* \"#utility.yul\":1850:1856   */\n      dup3\n        /* \"#utility.yul\":1839:1848   */\n      dup7\n        /* \"#utility.yul\":1835:1857   */\n      add\n        /* \"#utility.yul\":1814:1867   */\n      tag_112\n      jump\t// in\n    tag_125:\n        /* \"#utility.yul\":1804:1867   */\n      swap2\n      pop\n        /* \"#utility.yul\":1759:1877   */\n      pop\n        /* \"#utility.yul\":1410:1884   */\n      swap3\n      pop\n      swap3\n      swap1\n      pop\n      jump\t// out\n        /* \"#utility.yul\":1890:2655   */\n    tag_45:\n        /* \"#utility.yul\":1976:1982   */\n      0x00\n        /* \"#utility.yul\":1984:1990   */\n      dup1\n        /* \"#utility.yul\":1992:1998   */\n      0x00\n        /* \"#utility.yul\":2000:2006   */\n      dup1\n        /* \"#utility.yul\":2049:2052   */\n      0x80\n        /* \"#utility.yul\":2037:2046   */\n      dup6\n        /* \"#utility.yul\":2028:2035   */\n      dup8\n        /* \"#utility.yul\":2024:2047   */\n      sub\n        /* \"#utility.yul\":2020:2053   */\n      slt\n        /* \"#utility.yul\":2017:2137   */\n      iszero\n      tag_127\n      jumpi\n        /* \"#utility.yul\":2056:2135   */\n      tag_128\n      tag_119\n      jump\t// in\n    tag_128:\n        /* \"#utility.yul\":2017:2137   */\n    tag_127:\n        /* \"#utility.yul\":2176:2177   */\n      0x00\n        /* \"#utility.yul\":2201:2254   */\n      tag_129\n        /* \"#utility.yul\":2246:2253   */\n      dup8\n        /* \"#utility.yul\":2237:2243   */\n      dup3\n        /* \"#utility.yul\":2226:2235   */\n      dup9\n        /* \"#utility.yul\":2222:2244   */\n      add\n        /* \"#utility.yul\":2201:2254   */\n      tag_102\n      jump\t// in\n    tag_129:\n        /* \"#utility.yul\":2191:2254   */\n      swap5\n      pop\n        /* \"#utility.yul\":2147:2264   */\n      pop\n        /* \"#utility.yul\":2303:2305   */\n      0x20\n        /* \"#utility.yul\":2329:2382   */\n      tag_130\n        /* \"#utility.yul\":2374:2381   */\n      dup8\n        /* \"#utility.yul\":2365:2371   */\n      dup3\n        /* \"#utility.yul\":2354:2363   */\n      dup9\n        /* \"#utility.yul\":2350:2372   */\n      add\n        /* \"#utility.yul\":2329:2382   */\n      tag_112\n      jump\t// in\n    tag_130:\n        /* \"#utility.yul\":2319:2382   */\n      swap4\n      pop\n        /* \"#utility.yul\":2274:2392   */\n      pop\n        /* \"#utility.yul\":2431:2433   */\n      0x40\n        /* \"#utility.yul\":2457:2510   */\n      tag_131\n        /* \"#utility.yul\":2502:2509   */\n      dup8\n        /* \"#utility.yul\":2493:2499   */\n      dup3\n        /* \"#utility.yul\":2482:2491   */\n      dup9\n        /* \"#utility.yul\":2478:2500   */\n      add\n        /* \"#utility.yul\":2457:2510   */\n      tag_102\n      jump\t// in\n    tag_131:\n        /* \"#utility.yul\":2447:2510   */\n      swap3\n      pop\n        /* \"#utility.yul\":2402:2520   */\n      pop\n        /* \"#utility.yul\":2559:2561   */\n      0x60\n        /* \"#utility.yul\":2585:2638   */\n      tag_132\n        /* \"#utility.yul\":2630:2637   */\n      dup8\n        /* \"#utility.yul\":2621:2627   */\n      dup3\n        /* \"#utility.yul\":2610:2619   */\n      dup9\n        /* \"#utility.yul\":2606:2628   */\n      add\n        /* \"#utility.yul\":2585:2638   */\n      tag_112\n      jump\t// in\n    tag_132:\n        /* \"#utility.yul\":2575:2638   */\n      swap2\n      pop\n        /* \"#utility.yul\":2530:2648   */\n      pop\n        /* \"#utility.yul\":1890:2655   */\n      swap3\n      swap6\n      swap2\n      swap5\n      pop\n      swap3\n      pop\n      jump\t// out\n        /* \"#utility.yul\":2661:3170   */\n    tag_34:\n        /* \"#utility.yul\":2730:2736   */\n      0x00\n        /* \"#utility.yul\":2779:2781   */\n      0x20\n        /* \"#utility.yul\":2767:2776   */\n      dup3\n        /* \"#utility.yul\":2758:2765   */\n      dup5\n        /* \"#utility.yul\":2754:2777   */\n      sub\n        /* \"#utility.yul\":2750:2782   */\n      slt\n        /* \"#utility.yul\":2747:2866   */\n      iszero\n      tag_134\n      jumpi\n        /* \"#utility.yul\":2785:2864   */\n      tag_135\n      tag_119\n      jump\t// in\n    tag_135:\n        /* \"#utility.yul\":2747:2866   */\n    tag_134:\n        /* \"#utility.yul\":2933:2934   */\n      0x00\n        /* \"#utility.yul\":2922:2931   */\n      dup3\n        /* \"#utility.yul\":2918:2935   */\n      add\n        /* \"#utility.yul\":2905:2936   */\n      calldataload\n        /* \"#utility.yul\":2963:2981   */\n      0xffffffffffffffff\n        /* \"#utility.yul\":2955:2961   */\n      dup2\n        /* \"#utility.yul\":2952:2982   */\n      gt\n        /* \"#utility.yul\":2949:3066   */\n      iszero\n      tag_136\n      jumpi\n        /* \"#utility.yul\":2985:3064   */\n      tag_137\n      tag_138\n      jump\t// in\n    tag_137:\n        /* \"#utility.yul\":2949:3066   */\n    tag_136:\n        /* \"#utility.yul\":3090:3153   */\n      tag_139\n        /* \"#utility.yul\":3145:3152   */\n      dup5\n        /* \"#utility.yul\":3136:3142   */\n      dup3\n        /* \"#utility.yul\":3125:3134   */\n      dup6\n        /* \"#utility.yul\":3121:3143   */\n      add\n        /* \"#utility.yul\":3090:3153   */\n      tag_106\n      jump\t// in\n    tag_139:\n        /* \"#utility.yul\":3080:3153   */\n      swap2\n      pop\n        /* \"#utility.yul\":2876:3163   */\n      pop\n        /* \"#utility.yul\":2661:3170   */\n      swap3\n      swap2\n      pop\n      pop\n      jump\t// out\n        /* \"#utility.yul\":3176:3975   */\n    tag_23:\n        /* \"#utility.yul\":3263:3269   */\n      0x00\n        /* \"#utility.yul\":3271:3277   */\n      dup1\n        /* \"#utility.yul\":3279:3285   */\n      0x00\n        /* \"#utility.yul\":3328:3330   */\n      0x60\n        /* \"#utility.yul\":3316:3325   */\n      dup5\n        /* \"#utility.yul\":3307:3314   */\n      dup7\n        /* \"#utility.yul\":3303:3326   */\n      sub\n        /* \"#utility.yul\":3299:3331   */\n      slt\n        /* \"#utility.yul\":3296:3415   */\n      iszero\n      tag_141\n      jumpi\n        /* \"#utility.yul\":3334:3413   */\n      tag_142\n      tag_119\n      jump\t// in\n    tag_142:\n        /* \"#utility.yul\":3296:3415   */\n    tag_141:\n        /* \"#utility.yul\":3482:3483   */\n      0x00\n        /* \"#utility.yul\":3471:3480   */\n      dup5\n        /* \"#utility.yul\":3467:3484   */\n      add\n        /* \"#utility.yul\":3454:3485   */\n      calldataload\n        /* \"#utility.yul\":3512:3530   */\n      0xffffffffffffffff\n        /* \"#utility.yul\":3504:3510   */\n      dup2\n        /* \"#utility.yul\":3501:3531   */\n      gt\n        /* \"#utility.yul\":3498:3615   */\n      iszero\n      tag_143\n      jumpi\n        /* \"#utility.yul\":3534:3613   */\n      tag_144\n      tag_138\n      jump\t// in\n    tag_144:\n        /* \"#utility.yul\":3498:3615   */\n    tag_143:\n        /* \"#utility.yul\":3639:3702   */\n      tag_145\n        /* \"#utility.yul\":3694:3701   */\n      dup7\n        /* \"#utility.yul\":3685:3691   */\n      dup3\n        /* \"#utility.yul\":3674:3683   */\n      dup8\n        /* \"#utility.yul\":3670:3692   */\n      add\n        /* \"#utility.yul\":3639:3702   */\n      tag_106\n      jump\t// in\n    tag_145:\n        /* \"#utility.yul\":3629:3702   */\n      swap4\n      pop\n        /* \"#utility.yul\":3425:3712   */\n      pop\n        /* \"#utility.yul\":3751:3753   */\n      0x20\n        /* \"#utility.yul\":3777:3830   */\n      tag_146\n        /* \"#utility.yul\":3822:3829   */\n      dup7\n        /* \"#utility.yul\":3813:3819   */\n      dup3\n        /* \"#utility.yul\":3802:3811   */\n      dup8\n        /* \"#utility.yul\":3798:3820   */\n      add\n        /* \"#utility.yul\":3777:3830   */\n      tag_112\n      jump\t// in\n    tag_146:\n        /* \"#utility.yul\":3767:3830   */\n      swap3\n      pop\n        /* \"#utility.yul\":3722:3840   */\n      pop\n        /* \"#utility.yul\":3879:3881   */\n      0x40\n        /* \"#utility.yul\":3905:3958   */\n      tag_147\n        /* \"#utility.yul\":3950:3957   */\n      dup7\n        /* \"#utility.yul\":3941:3947   */\n      dup3\n        /* \"#utility.yul\":3930:3939   */\n      dup8\n        /* \"#utility.yul\":3926:3948   */\n      add\n        /* \"#utility.yul\":3905:3958   */\n      tag_112\n      jump\t// in\n    tag_147:\n        /* \"#utility.yul\":3895:3958   */\n      swap2\n      pop\n        /* \"#utility.yul\":3850:3968   */\n      pop\n        /* \"#utility.yul\":3176:3975   */\n      swap3\n      pop\n      swap3\n      pop\n      swap3\n      jump\t// out\n        /* \"#utility.yul\":3981:4099   */\n    tag_148:\n        /* \"#utility.yul\":4068:4092   */\n      tag_150\n        /* \"#utility.yul\":4086:4091   */\n      dup2\n        /* \"#utility.yul\":4068:4092   */\n      tag_151\n      jump\t// in\n    tag_150:\n        /* \"#utility.yul\":4063:4066   */\n      dup3\n        /* \"#utility.yul\":4056:4093   */\n      mstore\n        /* \"#utility.yul\":3981:4099   */\n      pop\n      pop\n      jump\t// out\n        /* \"#utility.yul\":4105:4469   */\n    tag_152:\n        /* \"#utility.yul\":4193:4196   */\n      0x00\n        /* \"#utility.yul\":4221:4260   */\n      tag_154\n        /* \"#utility.yul\":4254:4259   */\n      dup3\n        /* \"#utility.yul\":4221:4260   */\n      tag_155\n      jump\t// in\n    tag_154:\n        /* \"#utility.yul\":4276:4347   */\n      tag_156\n        /* \"#utility.yul\":4340:4346   */\n      dup2\n        /* \"#utility.yul\":4335:4338   */\n      dup6\n        /* \"#utility.yul\":4276:4347   */\n      tag_157\n      jump\t// in\n    tag_156:\n        /* \"#utility.yul\":4269:4347   */\n      swap4\n      pop\n        /* \"#utility.yul\":4356:4408   */\n      tag_158\n        /* \"#utility.yul\":4401:4407   */\n      dup2\n        /* \"#utility.yul\":4396:4399   */\n      dup6\n        /* \"#utility.yul\":4389:4393   */\n      0x20\n        /* \"#utility.yul\":4382:4387   */\n      dup7\n        /* \"#utility.yul\":4378:4394   */\n      add\n        /* \"#utility.yul\":4356:4408   */\n      tag_159\n      jump\t// in\n    tag_158:\n        /* \"#utility.yul\":4433:4462   */\n      tag_160\n        /* \"#utility.yul\":4455:4461   */\n      dup2\n        /* \"#utility.yul\":4433:4462   */\n      tag_161\n      jump\t// in\n    tag_160:\n        /* \"#utility.yul\":4428:4431   */\n      dup5\n        /* \"#utility.yul\":4424:4463   */\n      add\n        /* \"#utility.yul\":4417:4463   */\n      swap2\n      pop\n        /* \"#utility.yul\":4197:4469   */\n      pop\n        /* \"#utility.yul\":4105:4469   */\n      swap3\n      swap2\n      pop\n      pop\n      jump\t// out\n        /* \"#utility.yul\":4475:4841   */\n    tag_162:\n        /* \"#utility.yul\":4617:4620   */\n      0x00\n        /* \"#utility.yul\":4638:4705   */\n      tag_164\n        /* \"#utility.yul\":4702:4704   */\n      0x0d\n        /* \"#utility.yul\":4697:4700   */\n      dup4\n        /* \"#utility.yul\":4638:4705   */\n      tag_157\n      jump\t// in\n    tag_164:\n        /* \"#utility.yul\":4631:4705   */\n      swap2\n      pop\n        /* \"#utility.yul\":4714:4807   */\n      tag_165\n        /* \"#utility.yul\":4803:4806   */\n      dup3\n        /* \"#utility.yul\":4714:4807   */\n      tag_166\n      jump\t// in\n    tag_165:\n        /* \"#utility.yul\":4832:4834   */\n      0x20\n        /* \"#utility.yul\":4827:4830   */\n      dup3\n        /* \"#utility.yul\":4823:4835   */\n      add\n        /* \"#utility.yul\":4816:4835   */\n      swap1\n      pop\n        /* \"#utility.yul\":4475:4841   */\n      swap2\n      swap1\n      pop\n      jump\t// out\n        /* \"#utility.yul\":4847:5213   */\n    tag_167:\n        /* \"#utility.yul\":4989:4992   */\n      0x00\n        /* \"#utility.yul\":5010:5077   */\n      tag_169\n        /* \"#utility.yul\":5074:5076   */\n      0x0c\n        /* \"#utility.yul\":5069:5072   */\n      dup4\n        /* \"#utility.yul\":5010:5077   */\n      tag_157\n      jump\t// in\n    tag_169:\n        /* \"#utility.yul\":5003:5077   */\n      swap2\n      pop\n        /* \"#utility.yul\":5086:5179   */\n      tag_170\n        /* \"#utility.yul\":5175:5178   */\n      dup3\n        /* \"#utility.yul\":5086:5179   */\n      tag_171\n      jump\t// in\n    tag_170:\n        /* \"#utility.yul\":5204:5206   */\n      0x20\n        /* \"#utility.yul\":5199:5202   */\n      dup3\n        /* \"#utility.yul\":5195:5207   */\n      add\n        /* \"#utility.yul\":5188:5207   */\n      swap1\n      pop\n        /* \"#utility.yul\":4847:5213   */\n      swap2\n      swap1\n      pop\n      jump\t// out\n        /* \"#utility.yul\":5219:5585   */\n    tag_172:\n        /* \"#utility.yul\":5361:5364   */\n      0x00\n        /* \"#utility.yul\":5382:5449   */\n      tag_174\n        /* \"#utility.yul\":5446:5448   */\n      0x31\n        /* \"#utility.yul\":5441:5444   */\n      dup4\n        /* \"#utility.yul\":5382:5449   */\n      tag_157\n      jump\t// in\n    tag_174:\n        /* \"#utility.yul\":5375:5449   */\n      swap2\n      pop\n        /* \"#utility.yul\":5458:5551   */\n      tag_175\n        /* \"#utility.yul\":5547:5550   */\n      dup3\n        /* \"#utility.yul\":5458:5551   */\n      tag_176\n      jump\t// in\n    tag_175:\n        /* \"#utility.yul\":5576:5578   */\n      0x40\n        /* \"#utility.yul\":5571:5574   */\n      dup3\n        /* \"#utility.yul\":5567:5579   */\n      add\n        /* \"#utility.yul\":5560:5579   */\n      swap1\n      pop\n        /* \"#utility.yul\":5219:5585   */\n      swap2\n      swap1\n      pop\n      jump\t// out\n        /* \"#utility.yul\":5591:5957   */\n    tag_177:\n        /* \"#utility.yul\":5733:5736   */\n      0x00\n        /* \"#utility.yul\":5754:5821   */\n      tag_179\n        /* \"#utility.yul\":5818:5820   */\n      0x3b\n        /* \"#utility.yul\":5813:5816   */\n      dup4\n        /* \"#utility.yul\":5754:5821   */\n      tag_157\n      jump\t// in\n    tag_179:\n        /* \"#utility.yul\":5747:5821   */\n      swap2\n      pop\n        /* \"#utility.yul\":5830:5923   */\n      tag_180\n        /* \"#utility.yul\":5919:5922   */\n      dup3\n        /* \"#utility.yul\":5830:5923   */\n      tag_181\n      jump\t// in\n    tag_180:\n        /* \"#utility.yul\":5948:5950   */\n      0x40\n        /* \"#utility.yul\":5943:5946   */\n      dup3\n        /* \"#utility.yul\":5939:5951   */\n      add\n        /* \"#utility.yul\":5932:5951   */\n      swap1\n      pop\n        /* \"#utility.yul\":5591:5957   */\n      swap2\n      swap1\n      pop\n      jump\t// out\n        /* \"#utility.yul\":5963:6329   */\n    tag_182:\n        /* \"#utility.yul\":6105:6108   */\n      0x00\n        /* \"#utility.yul\":6126:6193   */\n      tag_184\n        /* \"#utility.yul\":6190:6192   */\n      0x23\n        /* \"#utility.yul\":6185:6188   */\n      dup4\n        /* \"#utility.yul\":6126:6193   */\n      tag_157\n      jump\t// in\n    tag_184:\n        /* \"#utility.yul\":6119:6193   */\n      swap2\n      pop\n        /* \"#utility.yul\":6202:6295   */\n      tag_185\n        /* \"#utility.yul\":6291:6294   */\n      dup3\n        /* \"#utility.yul\":6202:6295   */\n      tag_186\n      jump\t// in\n    tag_185:\n        /* \"#utility.yul\":6320:6322   */\n      0x40\n        /* \"#utility.yul\":6315:6318   */\n      dup3\n        /* \"#utility.yul\":6311:6323   */\n      add\n        /* \"#utility.yul\":6304:6323   */\n      swap1\n      pop\n        /* \"#utility.yul\":5963:6329   */\n      swap2\n      swap1\n      pop\n      jump\t// out\n        /* \"#utility.yul\":6335:6453   */\n    tag_187:\n        /* \"#utility.yul\":6422:6446   */\n      tag_189\n        /* \"#utility.yul\":6440:6445   */\n      dup2\n        /* \"#utility.yul\":6422:6446   */\n      tag_190\n      jump\t// in\n    tag_189:\n        /* \"#utility.yul\":6417:6420   */\n      dup3\n        /* \"#utility.yul\":6410:6447   */\n      mstore\n        /* \"#utility.yul\":6335:6453   */\n      pop\n      pop\n      jump\t// out\n        /* \"#utility.yul\":6459:6681   */\n    tag_14:\n        /* \"#utility.yul\":6552:6556   */\n      0x00\n        /* \"#utility.yul\":6590:6592   */\n      0x20\n        /* \"#utility.yul\":6579:6588   */\n      dup3\n        /* \"#utility.yul\":6575:6593   */\n      add\n        /* \"#utility.yul\":6567:6593   */\n      swap1\n      pop\n        /* \"#utility.yul\":6603:6674   */\n      tag_192\n        /* \"#utility.yul\":6671:6672   */\n      0x00\n        /* \"#utility.yul\":6660:6669   */\n      dup4\n        /* \"#utility.yul\":6656:6673   */\n      add\n        /* \"#utility.yul\":6647:6653   */\n      dup5\n        /* \"#utility.yul\":6603:6674   */\n      tag_148\n      jump\t// in\n    tag_192:\n        /* \"#utility.yul\":6459:6681   */\n      swap3\n      swap2\n      pop\n      pop\n      jump\t// out\n        /* \"#utility.yul\":6687:7220   */\n    tag_31:\n        /* \"#utility.yul\":6856:6860   */\n      0x00\n        /* \"#utility.yul\":6894:6896   */\n      0x60\n        /* \"#utility.yul\":6883:6892   */\n      dup3\n        /* \"#utility.yul\":6879:6897   */\n      add\n        /* \"#utility.yul\":6871:6897   */\n      swap1\n      pop\n        /* \"#utility.yul\":6943:6952   */\n      dup2\n        /* \"#utility.yul\":6937:6941   */\n      dup2\n        /* \"#utility.yul\":6933:6953   */\n      sub\n        /* \"#utility.yul\":6929:6930   */\n      0x00\n        /* \"#utility.yul\":6918:6927   */\n      dup4\n        /* \"#utility.yul\":6914:6931   */\n      add\n        /* \"#utility.yul\":6907:6954   */\n      mstore\n        /* \"#utility.yul\":6971:7049   */\n      tag_194\n        /* \"#utility.yul\":7044:7048   */\n      dup2\n        /* \"#utility.yul\":7035:7041   */\n      dup7\n        /* \"#utility.yul\":6971:7049   */\n      tag_152\n      jump\t// in\n    tag_194:\n        /* \"#utility.yul\":6963:7049   */\n      swap1\n      pop\n        /* \"#utility.yul\":7059:7131   */\n      tag_195\n        /* \"#utility.yul\":7127:7129   */\n      0x20\n        /* \"#utility.yul\":7116:7125   */\n      dup4\n        /* \"#utility.yul\":7112:7130   */\n      add\n        /* \"#utility.yul\":7103:7109   */\n      dup6\n        /* \"#utility.yul\":7059:7131   */\n      tag_148\n      jump\t// in\n    tag_195:\n        /* \"#utility.yul\":7141:7213   */\n      tag_196\n        /* \"#utility.yul\":7209:7211   */\n      0x40\n        /* \"#utility.yul\":7198:7207   */\n      dup4\n        /* \"#utility.yul\":7194:7212   */\n      add\n        /* \"#utility.yul\":7185:7191   */\n      dup5\n        /* \"#utility.yul\":7141:7213   */\n      tag_187\n      jump\t// in\n    tag_196:\n        /* \"#utility.yul\":6687:7220   */\n      swap5\n      swap4\n      pop\n      pop\n      pop\n      pop\n      jump\t// out\n        /* \"#utility.yul\":7226:7645   */\n    tag_76:\n        /* \"#utility.yul\":7392:7396   */\n      0x00\n        /* \"#utility.yul\":7430:7432   */\n      0x20\n        /* \"#utility.yul\":7419:7428   */\n      dup3\n        /* \"#utility.yul\":7415:7433   */\n      add\n        /* \"#utility.yul\":7407:7433   */\n      swap1\n      pop\n        /* \"#utility.yul\":7479:7488   */\n      dup2\n        /* \"#utility.yul\":7473:7477   */\n      dup2\n        /* \"#utility.yul\":7469:7489   */\n      sub\n        /* \"#utility.yul\":7465:7466   */\n      0x00\n        /* \"#utility.yul\":7454:7463   */\n      dup4\n        /* \"#utility.yul\":7450:7467   */\n      add\n        /* \"#utility.yul\":7443:7490   */\n      mstore\n        /* \"#utility.yul\":7507:7638   */\n      tag_198\n        /* \"#utility.yul\":7633:7637   */\n      dup2\n        /* \"#utility.yul\":7507:7638   */\n      tag_162\n      jump\t// in\n    tag_198:\n        /* \"#utility.yul\":7499:7638   */\n      swap1\n      pop\n        /* \"#utility.yul\":7226:7645   */\n      swap2\n      swap1\n      pop\n      jump\t// out\n        /* \"#utility.yul\":7651:8070   */\n    tag_79:\n        /* \"#utility.yul\":7817:7821   */\n      0x00\n        /* \"#utility.yul\":7855:7857   */\n      0x20\n        /* \"#utility.yul\":7844:7853   */\n      dup3\n        /* \"#utility.yul\":7840:7858   */\n      add\n        /* \"#utility.yul\":7832:7858   */\n      swap1\n      pop\n        /* \"#utility.yul\":7904:7913   */\n      dup2\n        /* \"#utility.yul\":7898:7902   */\n      dup2\n        /* \"#utility.yul\":7894:7914   */\n      sub\n        /* \"#utility.yul\":7890:7891   */\n      0x00\n        /* \"#utility.yul\":7879:7888   */\n      dup4\n        /* \"#utility.yul\":7875:7892   */\n      add\n        /* \"#utility.yul\":7868:7915   */\n      mstore\n        /* \"#utility.yul\":7932:8063   */\n      tag_200\n        /* \"#utility.yul\":8058:8062   */\n      dup2\n        /* \"#utility.yul\":7932:8063   */\n      tag_167\n      jump\t// in\n    tag_200:\n        /* \"#utility.yul\":7924:8063   */\n      swap1\n      pop\n        /* \"#utility.yul\":7651:8070   */\n      swap2\n      swap1\n      pop\n      jump\t// out\n        /* \"#utility.yul\":8076:8495   */\n    tag_69:\n        /* \"#utility.yul\":8242:8246   */\n      0x00\n        /* \"#utility.yul\":8280:8282   */\n      0x20\n        /* \"#utility.yul\":8269:8278   */\n      dup3\n        /* \"#utility.yul\":8265:8283   */\n      add\n        /* \"#utility.yul\":8257:8283   */\n      swap1\n      pop\n        /* \"#utility.yul\":8329:8338   */\n      dup2\n        /* \"#utility.yul\":8323:8327   */\n      dup2\n        /* \"#utility.yul\":8319:8339   */\n      sub\n        /* \"#utility.yul\":8315:8316   */\n      0x00\n        /* \"#utility.yul\":8304:8313   */\n      dup4\n        /* \"#utility.yul\":8300:8317   */\n      add\n        /* \"#utility.yul\":8293:8340   */\n      mstore\n        /* \"#utility.yul\":8357:8488   */\n      tag_202\n        /* \"#utility.yul\":8483:8487   */\n      dup2\n        /* \"#utility.yul\":8357:8488   */\n      tag_172\n      jump\t// in\n    tag_202:\n        /* \"#utility.yul\":8349:8488   */\n      swap1\n      pop\n        /* \"#utility.yul\":8076:8495   */\n      swap2\n      swap1\n      pop\n      jump\t// out\n        /* \"#utility.yul\":8501:8920   */\n    tag_66:\n        /* \"#utility.yul\":8667:8671   */\n      0x00\n        /* \"#utility.yul\":8705:8707   */\n      0x20\n        /* \"#utility.yul\":8694:8703   */\n      dup3\n        /* \"#utility.yul\":8690:8708   */\n      add\n        /* \"#utility.yul\":8682:8708   */\n      swap1\n      pop\n        /* \"#utility.yul\":8754:8763   */\n      dup2\n        /* \"#utility.yul\":8748:8752   */\n      dup2\n        /* \"#utility.yul\":8744:8764   */\n      sub\n        /* \"#utility.yul\":8740:8741   */\n      0x00\n        /* \"#utility.yul\":8729:8738   */\n      dup4\n        /* \"#utility.yul\":8725:8742   */\n      add\n        /* \"#utility.yul\":8718:8765   */\n      mstore\n        /* \"#utility.yul\":8782:8913   */\n      tag_204\n        /* \"#utility.yul\":8908:8912   */\n      dup2\n        /* \"#utility.yul\":8782:8913   */\n      tag_177\n      jump\t// in\n    tag_204:\n        /* \"#utility.yul\":8774:8913   */\n      swap1\n      pop\n        /* \"#utility.yul\":8501:8920   */\n      swap2\n      swap1\n      pop\n      jump\t// out\n        /* \"#utility.yul\":8926:9345   */\n    tag_50:\n        /* \"#utility.yul\":9092:9096   */\n      0x00\n        /* \"#utility.yul\":9130:9132   */\n      0x20\n        /* \"#utility.yul\":9119:9128   */\n      dup3\n        /* \"#utility.yul\":9115:9133   */\n      add\n        /* \"#utility.yul\":9107:9133   */\n      swap1\n      pop\n        /* \"#utility.yul\":9179:9188   */\n      dup2\n        /* \"#utility.yul\":9173:9177   */\n      dup2\n        /* \"#utility.yul\":9169:9189   */\n      sub\n        /* \"#utility.yul\":9165:9166   */\n      0x00\n        /* \"#utility.yul\":9154:9163   */\n      dup4\n        /* \"#utility.yul\":9150:9167   */\n      add\n        /* \"#utility.yul\":9143:9190   */\n      mstore\n        /* \"#utility.yul\":9207:9338   */\n      tag_206\n        /* \"#utility.yul\":9333:9337   */\n      dup2\n        /* \"#utility.yul\":9207:9338   */\n      tag_182\n      jump\t// in\n    tag_206:\n        /* \"#utility.yul\":9199:9338   */\n      swap1\n      pop\n        /* \"#utility.yul\":8926:9345   */\n      swap2\n      swap1\n      pop\n      jump\t// out\n        /* \"#utility.yul\":9351:9573   */\n    tag_19:\n        /* \"#utility.yul\":9444:9448   */\n      0x00\n        /* \"#utility.yul\":9482:9484   */\n      0x20\n        /* \"#utility.yul\":9471:9480   */\n      dup3\n        /* \"#utility.yul\":9467:9485   */\n      add\n        /* \"#utility.yul\":9459:9485   */\n      swap1\n      pop\n        /* \"#utility.yul\":9495:9566   */\n      tag_208\n        /* \"#utility.yul\":9563:9564   */\n      0x00\n        /* \"#utility.yul\":9552:9561   */\n      dup4\n        /* \"#utility.yul\":9548:9565   */\n      add\n        /* \"#utility.yul\":9539:9545   */\n      dup5\n        /* \"#utility.yul\":9495:9566   */\n      tag_187\n      jump\t// in\n    tag_208:\n        /* \"#utility.yul\":9351:9573   */\n      swap3\n      swap2\n      pop\n      pop\n      jump\t// out\n        /* \"#utility.yul\":9579:9708   */\n    tag_96:\n        /* \"#utility.yul\":9613:9619   */\n      0x00\n        /* \"#utility.yul\":9640:9660   */\n      tag_210\n      tag_211\n      jump\t// in\n    tag_210:\n        /* \"#utility.yul\":9630:9660   */\n      swap1\n      pop\n        /* \"#utility.yul\":9669:9702   */\n      tag_212\n        /* \"#utility.yul\":9697:9701   */\n      dup3\n        /* \"#utility.yul\":9689:9695   */\n      dup3\n        /* \"#utility.yul\":9669:9702   */\n      tag_213\n      jump\t// in\n    tag_212:\n        /* \"#utility.yul\":9579:9708   */\n      swap2\n      swap1\n      pop\n      jump\t// out\n        /* \"#utility.yul\":9714:9789   */\n    tag_211:\n        /* \"#utility.yul\":9747:9753   */\n      0x00\n        /* \"#utility.yul\":9780:9782   */\n      0x40\n        /* \"#utility.yul\":9774:9783   */\n      mload\n        /* \"#utility.yul\":9764:9783   */\n      swap1\n      pop\n        /* \"#utility.yul\":9714:9789   */\n      swap1\n      jump\t// out\n        /* \"#utility.yul\":9795:10103   */\n    tag_95:\n        /* \"#utility.yul\":9857:9861   */\n      0x00\n        /* \"#utility.yul\":9947:9965   */\n      0xffffffffffffffff\n        /* \"#utility.yul\":9939:9945   */\n      dup3\n        /* \"#utility.yul\":9936:9966   */\n      gt\n        /* \"#utility.yul\":9933:9989   */\n      iszero\n      tag_216\n      jumpi\n        /* \"#utility.yul\":9969:9987   */\n      tag_217\n      tag_218\n      jump\t// in\n    tag_217:\n        /* \"#utility.yul\":9933:9989   */\n    tag_216:\n        /* \"#utility.yul\":10007:10036   */\n      tag_219\n        /* \"#utility.yul\":10029:10035   */\n      dup3\n        /* \"#utility.yul\":10007:10036   */\n      tag_161\n      jump\t// in\n    tag_219:\n        /* \"#utility.yul\":9999:10036   */\n      swap1\n      pop\n        /* \"#utility.yul\":10091:10095   */\n      0x20\n        /* \"#utility.yul\":10085:10089   */\n      dup2\n        /* \"#utility.yul\":10081:10096   */\n      add\n        /* \"#utility.yul\":10073:10096   */\n      swap1\n      pop\n        /* \"#utility.yul\":9795:10103   */\n      swap2\n      swap1\n      pop\n      jump\t// out\n        /* \"#utility.yul\":10109:10208   */\n    tag_155:\n        /* \"#utility.yul\":10161:10167   */\n      0x00\n        /* \"#utility.yul\":10195:10200   */\n      dup2\n        /* \"#utility.yul\":10189:10201   */\n      mload\n        /* \"#utility.yul\":10179:10201   */\n      swap1\n      pop\n        /* \"#utility.yul\":10109:10208   */\n      swap2\n      swap1\n      pop\n      jump\t// out\n        /* \"#utility.yul\":10214:10383   */\n    tag_157:\n        /* \"#utility.yul\":10298:10309   */\n      0x00\n        /* \"#utility.yul\":10332:10338   */\n      dup3\n        /* \"#utility.yul\":10327:10330   */\n      dup3\n        /* \"#utility.yul\":10320:10339   */\n      mstore\n        /* \"#utility.yul\":10372:10376   */\n      0x20\n        /* \"#utility.yul\":10367:10370   */\n      dup3\n        /* \"#utility.yul\":10363:10377   */\n      add\n        /* \"#utility.yul\":10348:10377   */\n      swap1\n      pop\n        /* \"#utility.yul\":10214:10383   */\n      swap3\n      swap2\n      pop\n      pop\n      jump\t// out\n        /* \"#utility.yul\":10389:10485   */\n    tag_151:\n        /* \"#utility.yul\":10426:10433   */\n      0x00\n        /* \"#utility.yul\":10455:10479   */\n      tag_223\n        /* \"#utility.yul\":10473:10478   */\n      dup3\n        /* \"#utility.yul\":10455:10479   */\n      tag_224\n      jump\t// in\n    tag_223:\n        /* \"#utility.yul\":10444:10479   */\n      swap1\n      pop\n        /* \"#utility.yul\":10389:10485   */\n      swap2\n      swap1\n      pop\n      jump\t// out\n        /* \"#utility.yul\":10491:10617   */\n    tag_224:\n        /* \"#utility.yul\":10528:10535   */\n      0x00\n        /* \"#utility.yul\":10568:10610   */\n      0xffffffffffffffffffffffffffffffffffffffff\n        /* \"#utility.yul\":10561:10566   */\n      dup3\n        /* \"#utility.yul\":10557:10611   */\n      and\n        /* \"#utility.yul\":10546:10611   */\n      swap1\n      pop\n        /* \"#utility.yul\":10491:10617   */\n      swap2\n      swap1\n      pop\n      jump\t// out\n        /* \"#utility.yul\":10623:10700   */\n    tag_190:\n        /* \"#utility.yul\":10660:10667   */\n      0x00\n        /* \"#utility.yul\":10689:10694   */\n      dup2\n        /* \"#utility.yul\":10678:10694   */\n      swap1\n      pop\n        /* \"#utility.yul\":10623:10700   */\n      swap2\n      swap1\n      pop\n      jump\t// out\n        /* \"#utility.yul\":10706:10860   */\n    tag_101:\n        /* \"#utility.yul\":10790:10796   */\n      dup3\n        /* \"#utility.yul\":10785:10788   */\n      dup2\n        /* \"#utility.yul\":10780:10783   */\n      dup4\n        /* \"#utility.yul\":10767:10797   */\n      calldatacopy\n        /* \"#utility.yul\":10852:10853   */\n      0x00\n        /* \"#utility.yul\":10843:10849   */\n      dup4\n        /* \"#utility.yul\":10838:10841   */\n      dup4\n        /* \"#utility.yul\":10834:10850   */\n      add\n        /* \"#utility.yul\":10827:10854   */\n      mstore\n        /* \"#utility.yul\":10706:10860   */\n      pop\n      pop\n      pop\n      jump\t// out\n        /* \"#utility.yul\":10866:11173   */\n    tag_159:\n        /* \"#utility.yul\":10934:10935   */\n      0x00\n        /* \"#utility.yul\":10944:11057   */\n    tag_229:\n        /* \"#utility.yul\":10958:10964   */\n      dup4\n        /* \"#utility.yul\":10955:10956   */\n      dup2\n        /* \"#utility.yul\":10952:10965   */\n      lt\n        /* \"#utility.yul\":10944:11057   */\n      iszero\n      tag_231\n      jumpi\n        /* \"#utility.yul\":11043:11044   */\n      dup1\n        /* \"#utility.yul\":11038:11041   */\n      dup3\n        /* \"#utility.yul\":11034:11045   */\n      add\n        /* \"#utility.yul\":11028:11046   */\n      mload\n        /* \"#utility.yul\":11024:11025   */\n      dup2\n        /* \"#utility.yul\":11019:11022   */\n      dup5\n        /* \"#utility.yul\":11015:11026   */\n      add\n        /* \"#utility.yul\":11008:11047   */\n      mstore\n        /* \"#utility.yul\":10980:10982   */\n      0x20\n        /* \"#utility.yul\":10977:10978   */\n      dup2\n        /* \"#utility.yul\":10973:10983   */\n      add\n        /* \"#utility.yul\":10968:10983   */\n      swap1\n      pop\n        /* \"#utility.yul\":10944:11057   */\n      jump(tag_229)\n    tag_231:\n        /* \"#utility.yul\":11075:11081   */\n      dup4\n        /* \"#utility.yul\":11072:11073   */\n      dup2\n        /* \"#utility.yul\":11069:11082   */\n      gt\n        /* \"#utility.yul\":11066:11167   */\n      iszero\n      tag_232\n      jumpi\n        /* \"#utility.yul\":11155:11156   */\n      0x00\n        /* \"#utility.yul\":11146:11152   */\n      dup5\n        /* \"#utility.yul\":11141:11144   */\n      dup5\n        /* \"#utility.yul\":11137:11153   */\n      add\n        /* \"#utility.yul\":11130:11157   */\n      mstore\n        /* \"#utility.yul\":11066:11167   */\n    tag_232:\n        /* \"#utility.yul\":10915:11173   */\n      pop\n        /* \"#utility.yul\":10866:11173   */\n      pop\n      pop\n      pop\n      jump\t// out\n        /* \"#utility.yul\":11179:11499   */\n    tag_58:\n        /* \"#utility.yul\":11223:11229   */\n      0x00\n        /* \"#utility.yul\":11260:11261   */\n      0x02\n        /* \"#utility.yul\":11254:11258   */\n      dup3\n        /* \"#utility.yul\":11250:11262   */\n      div\n        /* \"#utility.yul\":11240:11262   */\n      swap1\n      pop\n        /* \"#utility.yul\":11307:11308   */\n      0x01\n        /* \"#utility.yul\":11301:11305   */\n      dup3\n        /* \"#utility.yul\":11297:11309   */\n      and\n        /* \"#utility.yul\":11328:11346   */\n      dup1\n        /* \"#utility.yul\":11318:11399   */\n      tag_234\n      jumpi\n        /* \"#utility.yul\":11384:11388   */\n      0x7f\n        /* \"#utility.yul\":11376:11382   */\n      dup3\n        /* \"#utility.yul\":11372:11389   */\n      and\n        /* \"#utility.yul\":11362:11389   */\n      swap2\n      pop\n        /* \"#utility.yul\":11318:11399   */\n    tag_234:\n        /* \"#utility.yul\":11446:11448   */\n      0x20\n        /* \"#utility.yul\":11438:11444   */\n      dup3\n        /* \"#utility.yul\":11435:11449   */\n      lt\n        /* \"#utility.yul\":11415:11433   */\n      dup2\n        /* \"#utility.yul\":11412:11450   */\n      eq\n        /* \"#utility.yul\":11409:11493   */\n      iszero\n      tag_235\n      jumpi\n        /* \"#utility.yul\":11465:11483   */\n      tag_236\n      tag_237\n      jump\t// in\n    tag_236:\n        /* \"#utility.yul\":11409:11493   */\n    tag_235:\n        /* \"#utility.yul\":11230:11499   */\n      pop\n        /* \"#utility.yul\":11179:11499   */\n      swap2\n      swap1\n      pop\n      jump\t// out\n        /* \"#utility.yul\":11505:11786   */\n    tag_213:\n        /* \"#utility.yul\":11588:11615   */\n      tag_239\n        /* \"#utility.yul\":11610:11614   */\n      dup3\n        /* \"#utility.yul\":11588:11615   */\n      tag_161\n      jump\t// in\n    tag_239:\n        /* \"#utility.yul\":11580:11586   */\n      dup2\n        /* \"#utility.yul\":11576:11616   */\n      add\n        /* \"#utility.yul\":11718:11724   */\n      dup2\n        /* \"#utility.yul\":11706:11716   */\n      dup2\n        /* \"#utility.yul\":11703:11725   */\n      lt\n        /* \"#utility.yul\":11682:11700   */\n      0xffffffffffffffff\n        /* \"#utility.yul\":11670:11680   */\n      dup3\n        /* \"#utility.yul\":11667:11701   */\n      gt\n        /* \"#utility.yul\":11664:11726   */\n      or\n        /* \"#utility.yul\":11661:11749   */\n      iszero\n      tag_240\n      jumpi\n        /* \"#utility.yul\":11729:11747   */\n      tag_241\n      tag_218\n      jump\t// in\n    tag_241:\n        /* \"#utility.yul\":11661:11749   */\n    tag_240:\n        /* \"#utility.yul\":11769:11779   */\n      dup1\n        /* \"#utility.yul\":11765:11767   */\n      0x40\n        /* \"#utility.yul\":11758:11780   */\n      mstore\n        /* \"#utility.yul\":11548:11786   */\n      pop\n        /* \"#utility.yul\":11505:11786   */\n      pop\n      pop\n      jump\t// out\n        /* \"#utility.yul\":11792:12025   */\n    tag_56:\n        /* \"#utility.yul\":11831:11834   */\n      0x00\n        /* \"#utility.yul\":11854:11878   */\n      tag_243\n        /* \"#utility.yul\":11872:11877   */\n      dup3\n        /* \"#utility.yul\":11854:11878   */\n      tag_190\n      jump\t// in\n    tag_243:\n        /* \"#utility.yul\":11845:11878   */\n      swap2\n      pop\n        /* \"#utility.yul\":11900:11966   */\n      0xffffffffffffffffffffffffffffffffffffffffffffffffffffffffffffffff\n        /* \"#utility.yul\":11893:11898   */\n      dup3\n        /* \"#utility.yul\":11890:11967   */\n      eq\n        /* \"#utility.yul\":11887:11990   */\n      iszero\n      tag_244\n      jumpi\n        /* \"#utility.yul\":11970:11988   */\n      tag_245\n      tag_246\n      jump\t// in\n    tag_245:\n        /* \"#utility.yul\":11887:11990   */\n    tag_244:\n        /* \"#utility.yul\":12017:12018   */\n      0x01\n        /* \"#utility.yul\":12010:12015   */\n      dup3\n        /* \"#utility.yul\":12006:12019   */\n      add\n        /* \"#utility.yul\":11999:12019   */\n      swap1\n      pop\n        /* \"#utility.yul\":11792:12025   */\n      swap2\n      swap1\n      pop\n      jump\t// out\n        /* \"#utility.yul\":12031:12211   */\n    tag_246:\n        /* \"#utility.yul\":12079:12156   */\n      0x4e487b7100000000000000000000000000000000000000000000000000000000\n        /* \"#utility.yul\":12076:12077   */\n      0x00\n        /* \"#utility.yul\":12069:12157   */\n      mstore\n        /* \"#utility.yul\":12176:12180   */\n      0x11\n        /* \"#utility.yul\":12173:12174   */\n      0x04\n        /* \"#utility.yul\":12166:12181   */\n      mstore\n        /* \"#utility.yul\":12200:12204   */\n      0x24\n        /* \"#utility.yul\":12197:12198   */\n      0x00\n        /* \"#utility.yul\":12190:12205   */\n      revert\n        /* \"#utility.yul\":12217:12397   */\n    tag_237:\n        /* \"#utility.yul\":12265:12342   */\n      0x4e487b7100000000000000000000000000000000000000000000000000000000\n        /* \"#utility.yul\":12262:12263   */\n      0x00\n        /* \"#utility.yul\":12255:12343   */\n      mstore\n        /* \"#utility.yul\":12362:12366   */\n      0x22\n        /* \"#utility.yul\":12359:12360   */\n      0x04\n        /* \"#utility.yul\":12352:12367   */\n      mstore\n        /* \"#utility.yul\":12386:12390   */\n      0x24\n        /* \"#utility.yul\":12383:12384   */\n      0x00\n        /* \"#utility.yul\":12376:12391   */\n      revert\n        /* \"#utility.yul\":12403:12583   */\n    tag_218:\n        /* \"#utility.yul\":12451:12528   */\n      0x4e487b7100000000000000000000000000000000000000000000000000000000\n        /* \"#utility.yul\":12448:12449   */\n      0x00\n        /* \"#utility.yul\":12441:12529   */\n      mstore\n        /* \"#utility.yul\":12548:12552   */\n      0x41\n        /* \"#utility.yul\":12545:12546   */\n      0x04\n        /* \"#utility.yul\":12538:12553   */\n      mstore\n        /* \"#utility.yul\":12572:12576   */\n      0x24\n        /* \"#utility.yul\":12569:12570   */\n      0x00\n        /* \"#utility.yul\":12562:12577   */\n      revert\n        /* \"#utility.yul\":12589:12706   */\n    tag_110:\n        /* \"#utility.yul\":12698:12699   */\n      0x00\n        /* \"#utility.yul\":12695:12696   */\n      dup1\n        /* \"#utility.yul\":12688:12700   */\n      revert\n        /* \"#utility.yul\":12712:12829   */\n    tag_99:\n        /* \"#utility.yul\":12821:12822   */\n      0x00\n        /* \"#utility.yul\":12818:12819   */\n      dup1\n        /* \"#utility.yul\":12811:12823   */\n      revert\n        /* \"#utility.yul\":12835:12952   */\n    tag_138:\n        /* \"#utility.yul\":12944:12945   */\n      0x00\n        /* \"#utility.yul\":12941:12942   */\n      dup1\n        /* \"#utility.yul\":12934:12946   */\n      revert\n        /* \"#utility.yul\":12958:13075   */\n    tag_119:\n        /* \"#utility.yul\":13067:13068   */\n      0x00\n        /* \"#utility.yul\":13064:13065   */\n      dup1\n        /* \"#utility.yul\":13057:13069   */\n      revert\n        /* \"#utility.yul\":13081:13183   */\n    tag_161:\n        /* \"#utility.yul\":13122:13128   */\n      0x00\n        /* \"#utility.yul\":13173:13175   */\n      0x1f\n        /* \"#utility.yul\":13169:13176   */\n      not\n        /* \"#utility.yul\":13164:13166   */\n      0x1f\n        /* \"#utility.yul\":13157:13162   */\n      dup4\n        /* \"#utility.yul\":13153:13167   */\n      add\n        /* \"#utility.yul\":13149:13177   */\n      and\n        /* \"#utility.yul\":13139:13177   */\n      swap1\n      pop\n        /* \"#utility.yul\":13081:13183   */\n      swap2\n      swap1\n      pop\n      jump\t// out\n        /* \"#utility.yul\":13189:13352   */\n    tag_166:\n        /* \"#utility.yul\":13329:13344   */\n      0x4976616c69642073746f72652100000000000000000000000000000000000000\n        /* \"#utility.yul\":13325:13326   */\n      0x00\n        /* \"#utility.yul\":13317:13323   */\n      dup3\n        /* \"#utility.yul\":13313:13327   */\n      add\n        /* \"#utility.yul\":13306:13345   */\n      mstore\n        /* \"#utility.yul\":13189:13352   */\n      pop\n      jump\t// out\n        /* \"#utility.yul\":13358:13520   */\n    tag_171:\n        /* \"#utility.yul\":13498:13512   */\n      0x4e6f7420617661696c626c650000000000000000000000000000000000000000\n        /* \"#utility.yul\":13494:13495   */\n      0x00\n        /* \"#utility.yul\":13486:13492   */\n      dup3\n        /* \"#utility.yul\":13482:13496   */\n      add\n        /* \"#utility.yul\":13475:13513   */\n      mstore\n        /* \"#utility.yul\":13358:13520   */\n      pop\n      jump\t// out\n        /* \"#utility.yul\":13526:13762   */\n    tag_176:\n        /* \"#utility.yul\":13666:13700   */\n      0x596f75206861766520746f2070617920313030207765692066656520746f2063\n        /* \"#utility.yul\":13662:13663   */\n      0x00\n        /* \"#utility.yul\":13654:13660   */\n      dup3\n        /* \"#utility.yul\":13650:13664   */\n      add\n        /* \"#utility.yul\":13643:13701   */\n      mstore\n        /* \"#utility.yul\":13735:13754   */\n      0x72656174652061206e65772073746f7265000000000000000000000000000000\n        /* \"#utility.yul\":13730:13732   */\n      0x20\n        /* \"#utility.yul\":13722:13728   */\n      dup3\n        /* \"#utility.yul\":13718:13733   */\n      add\n        /* \"#utility.yul\":13711:13755   */\n      mstore\n        /* \"#utility.yul\":13526:13762   */\n      pop\n      jump\t// out\n        /* \"#utility.yul\":13768:14014   */\n    tag_181:\n        /* \"#utility.yul\":13908:13942   */\n      0x596f7520617265206d616e6167657220796f752063616e742063726561746520\n        /* \"#utility.yul\":13904:13905   */\n      0x00\n        /* \"#utility.yul\":13896:13902   */\n      dup3\n        /* \"#utility.yul\":13892:13906   */\n      add\n        /* \"#utility.yul\":13885:13943   */\n      mstore\n        /* \"#utility.yul\":13977:14006   */\n      0x73746f726520776974682063757272656e7420616464726573732e0000000000\n        /* \"#utility.yul\":13972:13974   */\n      0x20\n        /* \"#utility.yul\":13964:13970   */\n      dup3\n        /* \"#utility.yul\":13960:13975   */\n      add\n        /* \"#utility.yul\":13953:14007   */\n      mstore\n        /* \"#utility.yul\":13768:14014   */\n      pop\n      jump\t// out\n        /* \"#utility.yul\":14020:14242   */\n    tag_186:\n        /* \"#utility.yul\":14160:14194   */\n      0x4f6e6c79206d616e616765722063616e20706572666f726d2074686973207461\n        /* \"#utility.yul\":14156:14157   */\n      0x00\n        /* \"#utility.yul\":14148:14154   */\n      dup3\n        /* \"#utility.yul\":14144:14158   */\n      add\n        /* \"#utility.yul\":14137:14195   */\n      mstore\n        /* \"#utility.yul\":14229:14234   */\n      0x736b2e0000000000000000000000000000000000000000000000000000000000\n        /* \"#utility.yul\":14224:14226   */\n      0x20\n        /* \"#utility.yul\":14216:14222   */\n      dup3\n        /* \"#utility.yul\":14212:14227   */\n      add\n        /* \"#utility.yul\":14205:14235   */\n      mstore\n        /* \"#utility.yul\":14020:14242   */\n      pop\n      jump\t// out\n        /* \"#utility.yul\":14248:14370   */\n    tag_105:\n        /* \"#utility.yul\":14321:14345   */\n      tag_261\n        /* \"#utility.yul\":14339:14344   */\n      dup2\n        /* \"#utility.yul\":14321:14345   */\n      tag_151\n      jump\t// in\n    tag_261:\n        /* \"#utility.yul\":14314:14319   */\n      dup2\n        /* \"#utility.yul\":14311:14346   */\n      eq\n        /* \"#utility.yul\":14301:14364   */\n      tag_262\n      jumpi\n        /* \"#utility.yul\":14360:14361   */\n      0x00\n        /* \"#utility.yul\":14357:14358   */\n      dup1\n        /* \"#utility.yul\":14350:14362   */\n      revert\n        /* \"#utility.yul\":14301:14364   */\n    tag_262:\n        /* \"#utility.yul\":14248:14370   */\n      pop\n      jump\t// out\n        /* \"#utility.yul\":14376:14498   */\n    tag_115:\n        /* \"#utility.yul\":14449:14473   */\n      tag_264\n        /* \"#utility.yul\":14467:14472   */\n      dup2\n        /* \"#utility.yul\":14449:14473   */\n      tag_190\n      jump\t// in\n    tag_264:\n        /* \"#utility.yul\":14442:14447   */\n      dup2\n        /* \"#utility.yul\":14439:14474   */\n      eq\n        /* \"#utility.yul\":14429:14492   */\n      tag_265\n      jumpi\n        /* \"#utility.yul\":14488:14489   */\n      0x00\n        /* \"#utility.yul\":14485:14486   */\n      dup1\n        /* \"#utility.yul\":14478:14490   */\n      revert\n        /* \"#utility.yul\":14429:14492   */\n    tag_265:\n        /* \"#utility.yul\":14376:14498   */\n      pop\n      jump\t// out\n\n    auxdata: 0xa2646970667358221220544b9210525e8d9c428ca74827c91718370a3e006fa6b076331c2fdca819b3f364736f6c63430008070033\n}\n",
				"bytecode": {
					"linkReferences": {},
					"object": "608060405234801561001057600080fd5b50336000806101000a81548173ffffffffffffffffffffffffffffffffffffffff021916908373ffffffffffffffffffffffffffffffffffffffff160217905550611056806100606000396000f3fe6080604052600436106100705760003560e01c8063b13591451161004e578063b1359145146100f4578063d0e04fe314610133578063d49bac1a1461014f578063f4defea31461018c57610070565b8063481c6a75146100755780636f9fb98a146100a057806389db5872146100cb575b600080fd5b34801561008157600080fd5b5061008a6101b5565b6040516100979190610b51565b60405180910390f35b3480156100ac57600080fd5b506100b56101d9565b6040516100c29190610c4a565b60405180910390f35b3480156100d757600080fd5b506100f260048036038101906100ed91906109dc565b610270565b005b34801561010057600080fd5b5061011b600480360381019061011691906108bf565b61031c565b60405161012a93929190610b6c565b60405180910390f35b61014d60048036038101906101489190610993565b6103ee565b005b34801561015b57600080fd5b50610176600480360381019061017191906108ec565b6105d1565b6040516101839190610c4a565b60405180910390f35b34801561019857600080fd5b506101b360048036038101906101ae919061092c565b6105f6565b005b60008054906101000a900473ffffffffffffffffffffffffffffffffffffffff1681565b60008060009054906101000a900473ffffffffffffffffffffffffffffffffffffffff1673ffffffffffffffffffffffffffffffffffffffff163373ffffffffffffffffffffffffffffffffffffffff161461026a576040517f08c379a000000000000000000000000000000000000000000000000000000000815260040161026190610c2a565b60405180910390fd5b47905090565b6000600160003373ffffffffffffffffffffffffffffffffffffffff1673ffffffffffffffffffffffffffffffffffffffff16815260200190815260200160002090506000816003016000836002015481526020019081526020016000209050848160000190805190602001906102e8929190610782565b5083816001018190555082816002018190555081600201600081548092919061031090610db8565b91905055505050505050565b600160205280600052604060002060009150905080600001805461033f90610d55565b80601f016020809104026020016040519081016040528092919081815260200182805461036b90610d55565b80156103b85780601f1061038d576101008083540402835291602001916103b8565b820191906000526020600020905b81548152906001019060200180831161039b57829003601f168201915b5050505050908060010160009054906101000a900473ffffffffffffffffffffffffffffffffffffffff16908060020154905083565b60008054906101000a900473ffffffffffffffffffffffffffffffffffffffff1673ffffffffffffffffffffffffffffffffffffffff163373ffffffffffffffffffffffffffffffffffffffff16141561047d576040517f08c379a000000000000000000000000000000000000000000000000000000000815260040161047490610c0a565b60405180910390fd5b606434146104c0576040517f08c379a00000000000000000000000000000000000000000000000000000000081526004016104b790610bea565b60405180910390fd5b60008060009054906101000a900473ffffffffffffffffffffffffffffffffffffffff1690506000600160003373ffffffffffffffffffffffffffffffffffffffff1673ffffffffffffffffffffffffffffffffffffffff168152602001908152602001600020905082816000019080519060200190610541929190610782565b50338160010160006101000a81548173ffffffffffffffffffffffffffffffffffffffff021916908373ffffffffffffffffffffffffffffffffffffffff1602179055508173ffffffffffffffffffffffffffffffffffffffff166108fc349081150290604051600060405180830381858888f193505050501580156105cb573d6000803e3d6000fd5b50505050565b6002602052816000526040600020602052806000526040600020600091509150505481565b6000600160008473ffffffffffffffffffffffffffffffffffffffff1673ffffffffffffffffffffffffffffffffffffffff16815260200190815260200160002090508273ffffffffffffffffffffffffffffffffffffffff168160010160009054906101000a900473ffffffffffffffffffffffffffffffffffffffff1673ffffffffffffffffffffffffffffffffffffffff16146106cb576040517f08c379a00000000000000000000000000000000000000000000000000000000081526004016106c290610baa565b60405180910390fd5b81816003016000868152602001908152602001600020600201541015610726576040517f08c379a000000000000000000000000000000000000000000000000000000000815260040161071d90610bca565b60405180910390fd5b81600260008773ffffffffffffffffffffffffffffffffffffffff1673ffffffffffffffffffffffffffffffffffffffff1681526020019081526020016000206000868152602001908152602001600020819055505050505050565b82805461078e90610d55565b90600052602060002090601f0160209004810192826107b057600085556107f7565b82601f106107c957805160ff19168380011785556107f7565b828001600101855582156107f7579182015b828111156107f65782518255916020019190600101906107db565b5b5090506108049190610808565b5090565b5b80821115610821576000816000905550600101610809565b5090565b600061083861083384610c8a565b610c65565b90508281526020810184848401111561085457610853610e93565b5b61085f848285610d13565b509392505050565b60008135905061087681610ff2565b92915050565b600082601f83011261089157610890610e8e565b5b81356108a1848260208601610825565b91505092915050565b6000813590506108b981611009565b92915050565b6000602082840312156108d5576108d4610e9d565b5b60006108e384828501610867565b91505092915050565b6000806040838503121561090357610902610e9d565b5b600061091185828601610867565b9250506020610922858286016108aa565b9150509250929050565b6000806000806080858703121561094657610945610e9d565b5b600061095487828801610867565b9450506020610965878288016108aa565b935050604061097687828801610867565b9250506060610987878288016108aa565b91505092959194509250565b6000602082840312156109a9576109a8610e9d565b5b600082013567ffffffffffffffff8111156109c7576109c6610e98565b5b6109d38482850161087c565b91505092915050565b6000806000606084860312156109f5576109f4610e9d565b5b600084013567ffffffffffffffff811115610a1357610a12610e98565b5b610a1f8682870161087c565b9350506020610a30868287016108aa565b9250506040610a41868287016108aa565b9150509250925092565b610a5481610cd7565b82525050565b6000610a6582610cbb565b610a6f8185610cc6565b9350610a7f818560208601610d22565b610a8881610ea2565b840191505092915050565b6000610aa0600d83610cc6565b9150610aab82610eb3565b602082019050919050565b6000610ac3600c83610cc6565b9150610ace82610edc565b602082019050919050565b6000610ae6603183610cc6565b9150610af182610f05565b604082019050919050565b6000610b09603b83610cc6565b9150610b1482610f54565b604082019050919050565b6000610b2c602383610cc6565b9150610b3782610fa3565b604082019050919050565b610b4b81610d09565b82525050565b6000602082019050610b666000830184610a4b565b92915050565b60006060820190508181036000830152610b868186610a5a565b9050610b956020830185610a4b565b610ba26040830184610b42565b949350505050565b60006020820190508181036000830152610bc381610a93565b9050919050565b60006020820190508181036000830152610be381610ab6565b9050919050565b60006020820190508181036000830152610c0381610ad9565b9050919050565b60006020820190508181036000830152610c2381610afc565b9050919050565b60006020820190508181036000830152610c4381610b1f565b9050919050565b6000602082019050610c5f6000830184610b42565b92915050565b6000610c6f610c80565b9050610c7b8282610d87565b919050565b6000604051905090565b600067ffffffffffffffff821115610ca557610ca4610e5f565b5b610cae82610ea2565b9050602081019050919050565b600081519050919050565b600082825260208201905092915050565b6000610ce282610ce9565b9050919050565b600073ffffffffffffffffffffffffffffffffffffffff82169050919050565b6000819050919050565b82818337600083830152505050565b60005b83811015610d40578082015181840152602081019050610d25565b83811115610d4f576000848401525b50505050565b60006002820490506001821680610d6d57607f821691505b60208210811415610d8157610d80610e30565b5b50919050565b610d9082610ea2565b810181811067ffffffffffffffff82111715610daf57610dae610e5f565b5b80604052505050565b6000610dc382610d09565b91507fffffffffffffffffffffffffffffffffffffffffffffffffffffffffffffffff821415610df657610df5610e01565b5b600182019050919050565b7f4e487b7100000000000000000000000000000000000000000000000000000000600052601160045260246000fd5b7f4e487b7100000000000000000000000000000000000000000000000000000000600052602260045260246000fd5b7f4e487b7100000000000000000000000000000000000000000000000000000000600052604160045260246000fd5b600080fd5b600080fd5b600080fd5b600080fd5b6000601f19601f8301169050919050565b7f4976616c69642073746f72652100000000000000000000000000000000000000600082015250565b7f4e6f7420617661696c626c650000000000000000000000000000000000000000600082015250565b7f596f75206861766520746f2070617920313030207765692066656520746f206360008201527f72656174652061206e65772073746f7265000000000000000000000000000000602082015250565b7f596f7520617265206d616e6167657220796f752063616e74206372656174652060008201527f73746f726520776974682063757272656e7420616464726573732e0000000000602082015250565b7f4f6e6c79206d616e616765722063616e20706572666f726d207468697320746160008201527f736b2e0000000000000000000000000000000000000000000000000000000000602082015250565b610ffb81610cd7565b811461100657600080fd5b50565b61101281610d09565b811461101d57600080fd5b5056fea2646970667358221220544b9210525e8d9c428ca74827c91718370a3e006fa6b076331c2fdca819b3f364736f6c63430008070033",
					"opcodes": "PUSH1 0x80 PUSH1 0x40 MSTORE CALLVALUE DUP1 ISZERO PUSH2 0x10 JUMPI PUSH1 0x0 DUP1 REVERT JUMPDEST POP CALLER PUSH1 0x0 DUP1 PUSH2 0x100 EXP DUP2 SLOAD DUP2 PUSH20 0xFFFFFFFFFFFFFFFFFFFFFFFFFFFFFFFFFFFFFFFF MUL NOT AND SWAP1 DUP4 PUSH20 0xFFFFFFFFFFFFFFFFFFFFFFFFFFFFFFFFFFFFFFFF AND MUL OR SWAP1 SSTORE POP PUSH2 0x1056 DUP1 PUSH2 0x60 PUSH1 0x0 CODECOPY PUSH1 0x0 RETURN INVALID PUSH1 0x80 PUSH1 0x40 MSTORE PUSH1 0x4 CALLDATASIZE LT PUSH2 0x70 JUMPI PUSH1 0x0 CALLDATALOAD PUSH1 0xE0 SHR DUP1 PUSH4 0xB1359145 GT PUSH2 0x4E JUMPI DUP1 PUSH4 0xB1359145 EQ PUSH2 0xF4 JUMPI DUP1 PUSH4 0xD0E04FE3 EQ PUSH2 0x133 JUMPI DUP1 PUSH4 0xD49BAC1A EQ PUSH2 0x14F JUMPI DUP1 PUSH4 0xF4DEFEA3 EQ PUSH2 0x18C JUMPI PUSH2 0x70 JUMP JUMPDEST DUP1 PUSH4 0x481C6A75 EQ PUSH2 0x75 JUMPI DUP1 PUSH4 0x6F9FB98A EQ PUSH2 0xA0 JUMPI DUP1 PUSH4 0x89DB5872 EQ PUSH2 0xCB JUMPI JUMPDEST PUSH1 0x0 DUP1 REVERT JUMPDEST CALLVALUE DUP1 ISZERO PUSH2 0x81 JUMPI PUSH1 0x0 DUP1 REVERT JUMPDEST POP PUSH2 0x8A PUSH2 0x1B5 JUMP JUMPDEST PUSH1 0x40 MLOAD PUSH2 0x97 SWAP2 SWAP1 PUSH2 0xB51 JUMP JUMPDEST PUSH1 0x40 MLOAD DUP1 SWAP2 SUB SWAP1 RETURN JUMPDEST CALLVALUE DUP1 ISZERO PUSH2 0xAC JUMPI PUSH1 0x0 DUP1 REVERT JUMPDEST POP PUSH2 0xB5 PUSH2 0x1D9 JUMP JUMPDEST PUSH1 0x40 MLOAD PUSH2 0xC2 SWAP2 SWAP1 PUSH2 0xC4A JUMP JUMPDEST PUSH1 0x40 MLOAD DUP1 SWAP2 SUB SWAP1 RETURN JUMPDEST CALLVALUE DUP1 ISZERO PUSH2 0xD7 JUMPI PUSH1 0x0 DUP1 REVERT JUMPDEST POP PUSH2 0xF2 PUSH1 0x4 DUP1 CALLDATASIZE SUB DUP2 ADD SWAP1 PUSH2 0xED SWAP2 SWAP1 PUSH2 0x9DC JUMP JUMPDEST PUSH2 0x270 JUMP JUMPDEST STOP JUMPDEST CALLVALUE DUP1 ISZERO PUSH2 0x100 JUMPI PUSH1 0x0 DUP1 REVERT JUMPDEST POP PUSH2 0x11B PUSH1 0x4 DUP1 CALLDATASIZE SUB DUP2 ADD SWAP1 PUSH2 0x116 SWAP2 SWAP1 PUSH2 0x8BF JUMP JUMPDEST PUSH2 0x31C JUMP JUMPDEST PUSH1 0x40 MLOAD PUSH2 0x12A SWAP4 SWAP3 SWAP2 SWAP1 PUSH2 0xB6C JUMP JUMPDEST PUSH1 0x40 MLOAD DUP1 SWAP2 SUB SWAP1 RETURN JUMPDEST PUSH2 0x14D PUSH1 0x4 DUP1 CALLDATASIZE SUB DUP2 ADD SWAP1 PUSH2 0x148 SWAP2 SWAP1 PUSH2 0x993 JUMP JUMPDEST PUSH2 0x3EE JUMP JUMPDEST STOP JUMPDEST CALLVALUE DUP1 ISZERO PUSH2 0x15B JUMPI PUSH1 0x0 DUP1 REVERT JUMPDEST POP PUSH2 0x176 PUSH1 0x4 DUP1 CALLDATASIZE SUB DUP2 ADD SWAP1 PUSH2 0x171 SWAP2 SWAP1 PUSH2 0x8EC JUMP JUMPDEST PUSH2 0x5D1 JUMP JUMPDEST PUSH1 0x40 MLOAD PUSH2 0x183 SWAP2 SWAP1 PUSH2 0xC4A JUMP JUMPDEST PUSH1 0x40 MLOAD DUP1 SWAP2 SUB SWAP1 RETURN JUMPDEST CALLVALUE DUP1 ISZERO PUSH2 0x198 JUMPI PUSH1 0x0 DUP1 REVERT JUMPDEST POP PUSH2 0x1B3 PUSH1 0x4 DUP1 CALLDATASIZE SUB DUP2 ADD SWAP1 PUSH2 0x1AE SWAP2 SWAP1 PUSH2 0x92C JUMP JUMPDEST PUSH2 0x5F6 JUMP JUMPDEST STOP JUMPDEST PUSH1 0x0 DUP1 SLOAD SWAP1 PUSH2 0x100 EXP SWAP1 DIV PUSH20 0xFFFFFFFFFFFFFFFFFFFFFFFFFFFFFFFFFFFFFFFF AND DUP2 JUMP JUMPDEST PUSH1 0x0 DUP1 PUSH1 0x0 SWAP1 SLOAD SWAP1 PUSH2 0x100 EXP SWAP1 DIV PUSH20 0xFFFFFFFFFFFFFFFFFFFFFFFFFFFFFFFFFFFFFFFF AND PUSH20 0xFFFFFFFFFFFFFFFFFFFFFFFFFFFFFFFFFFFFFFFF AND CALLER PUSH20 0xFFFFFFFFFFFFFFFFFFFFFFFFFFFFFFFFFFFFFFFF AND EQ PUSH2 0x26A JUMPI PUSH1 0x40 MLOAD PUSH32 0x8C379A000000000000000000000000000000000000000000000000000000000 DUP2 MSTORE PUSH1 0x4 ADD PUSH2 0x261 SWAP1 PUSH2 0xC2A JUMP JUMPDEST PUSH1 0x40 MLOAD DUP1 SWAP2 SUB SWAP1 REVERT JUMPDEST SELFBALANCE SWAP1 POP SWAP1 JUMP JUMPDEST PUSH1 0x0 PUSH1 0x1 PUSH1 0x0 CALLER PUSH20 0xFFFFFFFFFFFFFFFFFFFFFFFFFFFFFFFFFFFFFFFF AND PUSH20 0xFFFFFFFFFFFFFFFFFFFFFFFFFFFFFFFFFFFFFFFF AND DUP2 MSTORE PUSH1 0x20 ADD SWAP1 DUP2 MSTORE PUSH1 0x20 ADD PUSH1 0x0 KECCAK256 SWAP1 POP PUSH1 0x0 DUP2 PUSH1 0x3 ADD PUSH1 0x0 DUP4 PUSH1 0x2 ADD SLOAD DUP2 MSTORE PUSH1 0x20 ADD SWAP1 DUP2 MSTORE PUSH1 0x20 ADD PUSH1 0x0 KECCAK256 SWAP1 POP DUP5 DUP2 PUSH1 0x0 ADD SWAP1 DUP1 MLOAD SWAP1 PUSH1 0x20 ADD SWAP1 PUSH2 0x2E8 SWAP3 SWAP2 SWAP1 PUSH2 0x782 JUMP JUMPDEST POP DUP4 DUP2 PUSH1 0x1 ADD DUP2 SWAP1 SSTORE POP DUP3 DUP2 PUSH1 0x2 ADD DUP2 SWAP1 SSTORE POP DUP2 PUSH1 0x2 ADD PUSH1 0x0 DUP2 SLOAD DUP1 SWAP3 SWAP2 SWAP1 PUSH2 0x310 SWAP1 PUSH2 0xDB8 JUMP JUMPDEST SWAP2 SWAP1 POP SSTORE POP POP POP POP POP POP JUMP JUMPDEST PUSH1 0x1 PUSH1 0x20 MSTORE DUP1 PUSH1 0x0 MSTORE PUSH1 0x40 PUSH1 0x0 KECCAK256 PUSH1 0x0 SWAP2 POP SWAP1 POP DUP1 PUSH1 0x0 ADD DUP1 SLOAD PUSH2 0x33F SWAP1 PUSH2 0xD55 JUMP JUMPDEST DUP1 PUSH1 0x1F ADD PUSH1 0x20 DUP1 SWAP2 DIV MUL PUSH1 0x20 ADD PUSH1 0x40 MLOAD SWAP1 DUP2 ADD PUSH1 0x40 MSTORE DUP1 SWAP3 SWAP2 SWAP1 DUP2 DUP2 MSTORE PUSH1 0x20 ADD DUP3 DUP1 SLOAD PUSH2 0x36B SWAP1 PUSH2 0xD55 JUMP JUMPDEST DUP1 ISZERO PUSH2 0x3B8 JUMPI DUP1 PUSH1 0x1F LT PUSH2 0x38D JUMPI PUSH2 0x100 DUP1 DUP4 SLOAD DIV MUL DUP4 MSTORE SWAP2 PUSH1 0x20 ADD SWAP2 PUSH2 0x3B8 JUMP JUMPDEST DUP3 ADD SWAP2 SWAP1 PUSH1 0x0 MSTORE PUSH1 0x20 PUSH1 0x0 KECCAK256 SWAP1 JUMPDEST DUP2 SLOAD DUP2 MSTORE SWAP1 PUSH1 0x1 ADD SWAP1 PUSH1 0x20 ADD DUP1 DUP4 GT PUSH2 0x39B JUMPI DUP3 SWAP1 SUB PUSH1 0x1F AND DUP3 ADD SWAP2 JUMPDEST POP POP POP POP POP SWAP1 DUP1 PUSH1 0x1 ADD PUSH1 0x0 SWAP1 SLOAD SWAP1 PUSH2 0x100 EXP SWAP1 DIV PUSH20 0xFFFFFFFFFFFFFFFFFFFFFFFFFFFFFFFFFFFFFFFF AND SWAP1 DUP1 PUSH1 0x2 ADD SLOAD SWAP1 POP DUP4 JUMP JUMPDEST PUSH1 0x0 DUP1 SLOAD SWAP1 PUSH2 0x100 EXP SWAP1 DIV PUSH20 0xFFFFFFFFFFFFFFFFFFFFFFFFFFFFFFFFFFFFFFFF AND PUSH20 0xFFFFFFFFFFFFFFFFFFFFFFFFFFFFFFFFFFFFFFFF AND CALLER PUSH20 0xFFFFFFFFFFFFFFFFFFFFFFFFFFFFFFFFFFFFFFFF AND EQ ISZERO PUSH2 0x47D JUMPI PUSH1 0x40 MLOAD PUSH32 0x8C379A000000000000000000000000000000000000000000000000000000000 DUP2 MSTORE PUSH1 0x4 ADD PUSH2 0x474 SWAP1 PUSH2 0xC0A JUMP JUMPDEST PUSH1 0x40 MLOAD DUP1 SWAP2 SUB SWAP1 REVERT JUMPDEST PUSH1 0x64 CALLVALUE EQ PUSH2 0x4C0 JUMPI PUSH1 0x40 MLOAD PUSH32 0x8C379A000000000000000000000000000000000000000000000000000000000 DUP2 MSTORE PUSH1 0x4 ADD PUSH2 0x4B7 SWAP1 PUSH2 0xBEA JUMP JUMPDEST PUSH1 0x40 MLOAD DUP1 SWAP2 SUB SWAP1 REVERT JUMPDEST PUSH1 0x0 DUP1 PUSH1 0x0 SWAP1 SLOAD SWAP1 PUSH2 0x100 EXP SWAP1 DIV PUSH20 0xFFFFFFFFFFFFFFFFFFFFFFFFFFFFFFFFFFFFFFFF AND SWAP1 POP PUSH1 0x0 PUSH1 0x1 PUSH1 0x0 CALLER PUSH20 0xFFFFFFFFFFFFFFFFFFFFFFFFFFFFFFFFFFFFFFFF AND PUSH20 0xFFFFFFFFFFFFFFFFFFFFFFFFFFFFFFFFFFFFFFFF AND DUP2 MSTORE PUSH1 0x20 ADD SWAP1 DUP2 MSTORE PUSH1 0x20 ADD PUSH1 0x0 KECCAK256 SWAP1 POP DUP3 DUP2 PUSH1 0x0 ADD SWAP1 DUP1 MLOAD SWAP1 PUSH1 0x20 ADD SWAP1 PUSH2 0x541 SWAP3 SWAP2 SWAP1 PUSH2 0x782 JUMP JUMPDEST POP CALLER DUP2 PUSH1 0x1 ADD PUSH1 0x0 PUSH2 0x100 EXP DUP2 SLOAD DUP2 PUSH20 0xFFFFFFFFFFFFFFFFFFFFFFFFFFFFFFFFFFFFFFFF MUL NOT AND SWAP1 DUP4 PUSH20 0xFFFFFFFFFFFFFFFFFFFFFFFFFFFFFFFFFFFFFFFF AND MUL OR SWAP1 SSTORE POP DUP2 PUSH20 0xFFFFFFFFFFFFFFFFFFFFFFFFFFFFFFFFFFFFFFFF AND PUSH2 0x8FC CALLVALUE SWAP1 DUP2 ISZERO MUL SWAP1 PUSH1 0x40 MLOAD PUSH1 0x0 PUSH1 0x40 MLOAD DUP1 DUP4 SUB DUP2 DUP6 DUP9 DUP9 CALL SWAP4 POP POP POP POP ISZERO DUP1 ISZERO PUSH2 0x5CB JUMPI RETURNDATASIZE PUSH1 0x0 DUP1 RETURNDATACOPY RETURNDATASIZE PUSH1 0x0 REVERT JUMPDEST POP POP POP POP JUMP JUMPDEST PUSH1 0x2 PUSH1 0x20 MSTORE DUP2 PUSH1 0x0 MSTORE PUSH1 0x40 PUSH1 0x0 KECCAK256 PUSH1 0x20 MSTORE DUP1 PUSH1 0x0 MSTORE PUSH1 0x40 PUSH1 0x0 KECCAK256 PUSH1 0x0 SWAP2 POP SWAP2 POP POP SLOAD DUP2 JUMP JUMPDEST PUSH1 0x0 PUSH1 0x1 PUSH1 0x0 DUP5 PUSH20 0xFFFFFFFFFFFFFFFFFFFFFFFFFFFFFFFFFFFFFFFF AND PUSH20 0xFFFFFFFFFFFFFFFFFFFFFFFFFFFFFFFFFFFFFFFF AND DUP2 MSTORE PUSH1 0x20 ADD SWAP1 DUP2 MSTORE PUSH1 0x20 ADD PUSH1 0x0 KECCAK256 SWAP1 POP DUP3 PUSH20 0xFFFFFFFFFFFFFFFFFFFFFFFFFFFFFFFFFFFFFFFF AND DUP2 PUSH1 0x1 ADD PUSH1 0x0 SWAP1 SLOAD SWAP1 PUSH2 0x100 EXP SWAP1 DIV PUSH20 0xFFFFFFFFFFFFFFFFFFFFFFFFFFFFFFFFFFFFFFFF AND PUSH20 0xFFFFFFFFFFFFFFFFFFFFFFFFFFFFFFFFFFFFFFFF AND EQ PUSH2 0x6CB JUMPI PUSH1 0x40 MLOAD PUSH32 0x8C379A000000000000000000000000000000000000000000000000000000000 DUP2 MSTORE PUSH1 0x4 ADD PUSH2 0x6C2 SWAP1 PUSH2 0xBAA JUMP JUMPDEST PUSH1 0x40 MLOAD DUP1 SWAP2 SUB SWAP1 REVERT JUMPDEST DUP2 DUP2 PUSH1 0x3 ADD PUSH1 0x0 DUP7 DUP2 MSTORE PUSH1 0x20 ADD SWAP1 DUP2 MSTORE PUSH1 0x20 ADD PUSH1 0x0 KECCAK256 PUSH1 0x2 ADD SLOAD LT ISZERO PUSH2 0x726 JUMPI PUSH1 0x40 MLOAD PUSH32 0x8C379A000000000000000000000000000000000000000000000000000000000 DUP2 MSTORE PUSH1 0x4 ADD PUSH2 0x71D SWAP1 PUSH2 0xBCA JUMP JUMPDEST PUSH1 0x40 MLOAD DUP1 SWAP2 SUB SWAP1 REVERT JUMPDEST DUP2 PUSH1 0x2 PUSH1 0x0 DUP8 PUSH20 0xFFFFFFFFFFFFFFFFFFFFFFFFFFFFFFFFFFFFFFFF AND PUSH20 0xFFFFFFFFFFFFFFFFFFFFFFFFFFFFFFFFFFFFFFFF AND DUP2 MSTORE PUSH1 0x20 ADD SWAP1 DUP2 MSTORE PUSH1 0x20 ADD PUSH1 0x0 KECCAK256 PUSH1 0x0 DUP7 DUP2 MSTORE PUSH1 0x20 ADD SWAP1 DUP2 MSTORE PUSH1 0x20 ADD PUSH1 0x0 KECCAK256 DUP2 SWAP1 SSTORE POP POP POP POP POP POP JUMP JUMPDEST DUP3 DUP1 SLOAD PUSH2 0x78E SWAP1 PUSH2 0xD55 JUMP JUMPDEST SWAP1 PUSH1 0x0 MSTORE PUSH1 0x20 PUSH1 0x0 KECCAK256 SWAP1 PUSH1 0x1F ADD PUSH1 0x20 SWAP1 DIV DUP2 ADD SWAP3 DUP3 PUSH2 0x7B0 JUMPI PUSH1 0x0 DUP6 SSTORE PUSH2 0x7F7 JUMP JUMPDEST DUP3 PUSH1 0x1F LT PUSH2 0x7C9 JUMPI DUP1 MLOAD PUSH1 0xFF NOT AND DUP4 DUP1 ADD OR DUP6 SSTORE PUSH2 0x7F7 JUMP JUMPDEST DUP3 DUP1 ADD PUSH1 0x1 ADD DUP6 SSTORE DUP3 ISZERO PUSH2 0x7F7 JUMPI SWAP2 DUP3 ADD JUMPDEST DUP3 DUP2 GT ISZERO PUSH2 0x7F6 JUMPI DUP3 MLOAD DUP3 SSTORE SWAP2 PUSH1 0x20 ADD SWAP2 SWAP1 PUSH1 0x1 ADD SWAP1 PUSH2 0x7DB JUMP JUMPDEST JUMPDEST POP SWAP1 POP PUSH2 0x804 SWAP2 SWAP1 PUSH2 0x808 JUMP JUMPDEST POP SWAP1 JUMP JUMPDEST JUMPDEST DUP1 DUP3 GT ISZERO PUSH2 0x821 JUMPI PUSH1 0x0 DUP2 PUSH1 0x0 SWAP1 SSTORE POP PUSH1 0x1 ADD PUSH2 0x809 JUMP JUMPDEST POP SWAP1 JUMP JUMPDEST PUSH1 0x0 PUSH2 0x838 PUSH2 0x833 DUP5 PUSH2 0xC8A JUMP JUMPDEST PUSH2 0xC65 JUMP JUMPDEST SWAP1 POP DUP3 DUP2 MSTORE PUSH1 0x20 DUP2 ADD DUP5 DUP5 DUP5 ADD GT ISZERO PUSH2 0x854 JUMPI PUSH2 0x853 PUSH2 0xE93 JUMP JUMPDEST JUMPDEST PUSH2 0x85F DUP5 DUP3 DUP6 PUSH2 0xD13 JUMP JUMPDEST POP SWAP4 SWAP3 POP POP POP JUMP JUMPDEST PUSH1 0x0 DUP2 CALLDATALOAD SWAP1 POP PUSH2 0x876 DUP2 PUSH2 0xFF2 JUMP JUMPDEST SWAP3 SWAP2 POP POP JUMP JUMPDEST PUSH1 0x0 DUP3 PUSH1 0x1F DUP4 ADD SLT PUSH2 0x891 JUMPI PUSH2 0x890 PUSH2 0xE8E JUMP JUMPDEST JUMPDEST DUP2 CALLDATALOAD PUSH2 0x8A1 DUP5 DUP3 PUSH1 0x20 DUP7 ADD PUSH2 0x825 JUMP JUMPDEST SWAP2 POP POP SWAP3 SWAP2 POP POP JUMP JUMPDEST PUSH1 0x0 DUP2 CALLDATALOAD SWAP1 POP PUSH2 0x8B9 DUP2 PUSH2 0x1009 JUMP JUMPDEST SWAP3 SWAP2 POP POP JUMP JUMPDEST PUSH1 0x0 PUSH1 0x20 DUP3 DUP5 SUB SLT ISZERO PUSH2 0x8D5 JUMPI PUSH2 0x8D4 PUSH2 0xE9D JUMP JUMPDEST JUMPDEST PUSH1 0x0 PUSH2 0x8E3 DUP5 DUP3 DUP6 ADD PUSH2 0x867 JUMP JUMPDEST SWAP2 POP POP SWAP3 SWAP2 POP POP JUMP JUMPDEST PUSH1 0x0 DUP1 PUSH1 0x40 DUP4 DUP6 SUB SLT ISZERO PUSH2 0x903 JUMPI PUSH2 0x902 PUSH2 0xE9D JUMP JUMPDEST JUMPDEST PUSH1 0x0 PUSH2 0x911 DUP6 DUP3 DUP7 ADD PUSH2 0x867 JUMP JUMPDEST SWAP3 POP POP PUSH1 0x20 PUSH2 0x922 DUP6 DUP3 DUP7 ADD PUSH2 0x8AA JUMP JUMPDEST SWAP2 POP POP SWAP3 POP SWAP3 SWAP1 POP JUMP JUMPDEST PUSH1 0x0 DUP1 PUSH1 0x0 DUP1 PUSH1 0x80 DUP6 DUP8 SUB SLT ISZERO PUSH2 0x946 JUMPI PUSH2 0x945 PUSH2 0xE9D JUMP JUMPDEST JUMPDEST PUSH1 0x0 PUSH2 0x954 DUP8 DUP3 DUP9 ADD PUSH2 0x867 JUMP JUMPDEST SWAP5 POP POP PUSH1 0x20 PUSH2 0x965 DUP8 DUP3 DUP9 ADD PUSH2 0x8AA JUMP JUMPDEST SWAP4 POP POP PUSH1 0x40 PUSH2 0x976 DUP8 DUP3 DUP9 ADD PUSH2 0x867 JUMP JUMPDEST SWAP3 POP POP PUSH1 0x60 PUSH2 0x987 DUP8 DUP3 DUP9 ADD PUSH2 0x8AA JUMP JUMPDEST SWAP2 POP POP SWAP3 SWAP6 SWAP2 SWAP5 POP SWAP3 POP JUMP JUMPDEST PUSH1 0x0 PUSH1 0x20 DUP3 DUP5 SUB SLT ISZERO PUSH2 0x9A9 JUMPI PUSH2 0x9A8 PUSH2 0xE9D JUMP JUMPDEST JUMPDEST PUSH1 0x0 DUP3 ADD CALLDATALOAD PUSH8 0xFFFFFFFFFFFFFFFF DUP2 GT ISZERO PUSH2 0x9C7 JUMPI PUSH2 0x9C6 PUSH2 0xE98 JUMP JUMPDEST JUMPDEST PUSH2 0x9D3 DUP5 DUP3 DUP6 ADD PUSH2 0x87C JUMP JUMPDEST SWAP2 POP POP SWAP3 SWAP2 POP POP JUMP JUMPDEST PUSH1 0x0 DUP1 PUSH1 0x0 PUSH1 0x60 DUP5 DUP7 SUB SLT ISZERO PUSH2 0x9F5 JUMPI PUSH2 0x9F4 PUSH2 0xE9D JUMP JUMPDEST JUMPDEST PUSH1 0x0 DUP5 ADD CALLDATALOAD PUSH8 0xFFFFFFFFFFFFFFFF DUP2 GT ISZERO PUSH2 0xA13 JUMPI PUSH2 0xA12 PUSH2 0xE98 JUMP JUMPDEST JUMPDEST PUSH2 0xA1F DUP7 DUP3 DUP8 ADD PUSH2 0x87C JUMP JUMPDEST SWAP4 POP POP PUSH1 0x20 PUSH2 0xA30 DUP7 DUP3 DUP8 ADD PUSH2 0x8AA JUMP JUMPDEST SWAP3 POP POP PUSH1 0x40 PUSH2 0xA41 DUP7 DUP3 DUP8 ADD PUSH2 0x8AA JUMP JUMPDEST SWAP2 POP POP SWAP3 POP SWAP3 POP SWAP3 JUMP JUMPDEST PUSH2 0xA54 DUP2 PUSH2 0xCD7 JUMP JUMPDEST DUP3 MSTORE POP POP JUMP JUMPDEST PUSH1 0x0 PUSH2 0xA65 DUP3 PUSH2 0xCBB JUMP JUMPDEST PUSH2 0xA6F DUP2 DUP6 PUSH2 0xCC6 JUMP JUMPDEST SWAP4 POP PUSH2 0xA7F DUP2 DUP6 PUSH1 0x20 DUP7 ADD PUSH2 0xD22 JUMP JUMPDEST PUSH2 0xA88 DUP2 PUSH2 0xEA2 JUMP JUMPDEST DUP5 ADD SWAP2 POP POP SWAP3 SWAP2 POP POP JUMP JUMPDEST PUSH1 0x0 PUSH2 0xAA0 PUSH1 0xD DUP4 PUSH2 0xCC6 JUMP JUMPDEST SWAP2 POP PUSH2 0xAAB DUP3 PUSH2 0xEB3 JUMP JUMPDEST PUSH1 0x20 DUP3 ADD SWAP1 POP SWAP2 SWAP1 POP JUMP JUMPDEST PUSH1 0x0 PUSH2 0xAC3 PUSH1 0xC DUP4 PUSH2 0xCC6 JUMP JUMPDEST SWAP2 POP PUSH2 0xACE DUP3 PUSH2 0xEDC JUMP JUMPDEST PUSH1 0x20 DUP3 ADD SWAP1 POP SWAP2 SWAP1 POP JUMP JUMPDEST PUSH1 0x0 PUSH2 0xAE6 PUSH1 0x31 DUP4 PUSH2 0xCC6 JUMP JUMPDEST SWAP2 POP PUSH2 0xAF1 DUP3 PUSH2 0xF05 JUMP JUMPDEST PUSH1 0x40 DUP3 ADD SWAP1 POP SWAP2 SWAP1 POP JUMP JUMPDEST PUSH1 0x0 PUSH2 0xB09 PUSH1 0x3B DUP4 PUSH2 0xCC6 JUMP JUMPDEST SWAP2 POP PUSH2 0xB14 DUP3 PUSH2 0xF54 JUMP JUMPDEST PUSH1 0x40 DUP3 ADD SWAP1 POP SWAP2 SWAP1 POP JUMP JUMPDEST PUSH1 0x0 PUSH2 0xB2C PUSH1 0x23 DUP4 PUSH2 0xCC6 JUMP JUMPDEST SWAP2 POP PUSH2 0xB37 DUP3 PUSH2 0xFA3 JUMP JUMPDEST PUSH1 0x40 DUP3 ADD SWAP1 POP SWAP2 SWAP1 POP JUMP JUMPDEST PUSH2 0xB4B DUP2 PUSH2 0xD09 JUMP JUMPDEST DUP3 MSTORE POP POP JUMP JUMPDEST PUSH1 0x0 PUSH1 0x20 DUP3 ADD SWAP1 POP PUSH2 0xB66 PUSH1 0x0 DUP4 ADD DUP5 PUSH2 0xA4B JUMP JUMPDEST SWAP3 SWAP2 POP POP JUMP JUMPDEST PUSH1 0x0 PUSH1 0x60 DUP3 ADD SWAP1 POP DUP2 DUP2 SUB PUSH1 0x0 DUP4 ADD MSTORE PUSH2 0xB86 DUP2 DUP7 PUSH2 0xA5A JUMP JUMPDEST SWAP1 POP PUSH2 0xB95 PUSH1 0x20 DUP4 ADD DUP6 PUSH2 0xA4B JUMP JUMPDEST PUSH2 0xBA2 PUSH1 0x40 DUP4 ADD DUP5 PUSH2 0xB42 JUMP JUMPDEST SWAP5 SWAP4 POP POP POP POP JUMP JUMPDEST PUSH1 0x0 PUSH1 0x20 DUP3 ADD SWAP1 POP DUP2 DUP2 SUB PUSH1 0x0 DUP4 ADD MSTORE PUSH2 0xBC3 DUP2 PUSH2 0xA93 JUMP JUMPDEST SWAP1 POP SWAP2 SWAP1 POP JUMP JUMPDEST PUSH1 0x0 PUSH1 0x20 DUP3 ADD SWAP1 POP DUP2 DUP2 SUB PUSH1 0x0 DUP4 ADD MSTORE PUSH2 0xBE3 DUP2 PUSH2 0xAB6 JUMP JUMPDEST SWAP1 POP SWAP2 SWAP1 POP JUMP JUMPDEST PUSH1 0x0 PUSH1 0x20 DUP3 ADD SWAP1 POP DUP2 DUP2 SUB PUSH1 0x0 DUP4 ADD MSTORE PUSH2 0xC03 DUP2 PUSH2 0xAD9 JUMP JUMPDEST SWAP1 POP SWAP2 SWAP1 POP JUMP JUMPDEST PUSH1 0x0 PUSH1 0x20 DUP3 ADD SWAP1 POP DUP2 DUP2 SUB PUSH1 0x0 DUP4 ADD MSTORE PUSH2 0xC23 DUP2 PUSH2 0xAFC JUMP JUMPDEST SWAP1 POP SWAP2 SWAP1 POP JUMP JUMPDEST PUSH1 0x0 PUSH1 0x20 DUP3 ADD SWAP1 POP DUP2 DUP2 SUB PUSH1 0x0 DUP4 ADD MSTORE PUSH2 0xC43 DUP2 PUSH2 0xB1F JUMP JUMPDEST SWAP1 POP SWAP2 SWAP1 POP JUMP JUMPDEST PUSH1 0x0 PUSH1 0x20 DUP3 ADD SWAP1 POP PUSH2 0xC5F PUSH1 0x0 DUP4 ADD DUP5 PUSH2 0xB42 JUMP JUMPDEST SWAP3 SWAP2 POP POP JUMP JUMPDEST PUSH1 0x0 PUSH2 0xC6F PUSH2 0xC80 JUMP JUMPDEST SWAP1 POP PUSH2 0xC7B DUP3 DUP3 PUSH2 0xD87 JUMP JUMPDEST SWAP2 SWAP1 POP JUMP JUMPDEST PUSH1 0x0 PUSH1 0x40 MLOAD SWAP1 POP SWAP1 JUMP JUMPDEST PUSH1 0x0 PUSH8 0xFFFFFFFFFFFFFFFF DUP3 GT ISZERO PUSH2 0xCA5 JUMPI PUSH2 0xCA4 PUSH2 0xE5F JUMP JUMPDEST JUMPDEST PUSH2 0xCAE DUP3 PUSH2 0xEA2 JUMP JUMPDEST SWAP1 POP PUSH1 0x20 DUP2 ADD SWAP1 POP SWAP2 SWAP1 POP JUMP JUMPDEST PUSH1 0x0 DUP2 MLOAD SWAP1 POP SWAP2 SWAP1 POP JUMP JUMPDEST PUSH1 0x0 DUP3 DUP3 MSTORE PUSH1 0x20 DUP3 ADD SWAP1 POP SWAP3 SWAP2 POP POP JUMP JUMPDEST PUSH1 0x0 PUSH2 0xCE2 DUP3 PUSH2 0xCE9 JUMP JUMPDEST SWAP1 POP SWAP2 SWAP1 POP JUMP JUMPDEST PUSH1 0x0 PUSH20 0xFFFFFFFFFFFFFFFFFFFFFFFFFFFFFFFFFFFFFFFF DUP3 AND SWAP1 POP SWAP2 SWAP1 POP JUMP JUMPDEST PUSH1 0x0 DUP2 SWAP1 POP SWAP2 SWAP1 POP JUMP JUMPDEST DUP3 DUP2 DUP4 CALLDATACOPY PUSH1 0x0 DUP4 DUP4 ADD MSTORE POP POP POP JUMP JUMPDEST PUSH1 0x0 JUMPDEST DUP4 DUP2 LT ISZERO PUSH2 0xD40 JUMPI DUP1 DUP3 ADD MLOAD DUP2 DUP5 ADD MSTORE PUSH1 0x20 DUP2 ADD SWAP1 POP PUSH2 0xD25 JUMP JUMPDEST DUP4 DUP2 GT ISZERO PUSH2 0xD4F JUMPI PUSH1 0x0 DUP5 DUP5 ADD MSTORE JUMPDEST POP POP POP POP JUMP JUMPDEST PUSH1 0x0 PUSH1 0x2 DUP3 DIV SWAP1 POP PUSH1 0x1 DUP3 AND DUP1 PUSH2 0xD6D JUMPI PUSH1 0x7F DUP3 AND SWAP2 POP JUMPDEST PUSH1 0x20 DUP3 LT DUP2 EQ ISZERO PUSH2 0xD81 JUMPI PUSH2 0xD80 PUSH2 0xE30 JUMP JUMPDEST JUMPDEST POP SWAP2 SWAP1 POP JUMP JUMPDEST PUSH2 0xD90 DUP3 PUSH2 0xEA2 JUMP JUMPDEST DUP2 ADD DUP2 DUP2 LT PUSH8 0xFFFFFFFFFFFFFFFF DUP3 GT OR ISZERO PUSH2 0xDAF JUMPI PUSH2 0xDAE PUSH2 0xE5F JUMP JUMPDEST JUMPDEST DUP1 PUSH1 0x40 MSTORE POP POP POP JUMP JUMPDEST PUSH1 0x0 PUSH2 0xDC3 DUP3 PUSH2 0xD09 JUMP JUMPDEST SWAP2 POP PUSH32 0xFFFFFFFFFFFFFFFFFFFFFFFFFFFFFFFFFFFFFFFFFFFFFFFFFFFFFFFFFFFFFFFF DUP3 EQ ISZERO PUSH2 0xDF6 JUMPI PUSH2 0xDF5 PUSH2 0xE01 JUMP JUMPDEST JUMPDEST PUSH1 0x1 DUP3 ADD SWAP1 POP SWAP2 SWAP1 POP JUMP JUMPDEST PUSH32 0x4E487B7100000000000000000000000000000000000000000000000000000000 PUSH1 0x0 MSTORE PUSH1 0x11 PUSH1 0x4 MSTORE PUSH1 0x24 PUSH1 0x0 REVERT JUMPDEST PUSH32 0x4E487B7100000000000000000000000000000000000000000000000000000000 PUSH1 0x0 MSTORE PUSH1 0x22 PUSH1 0x4 MSTORE PUSH1 0x24 PUSH1 0x0 REVERT JUMPDEST PUSH32 0x4E487B7100000000000000000000000000000000000000000000000000000000 PUSH1 0x0 MSTORE PUSH1 0x41 PUSH1 0x4 MSTORE PUSH1 0x24 PUSH1 0x0 REVERT JUMPDEST PUSH1 0x0 DUP1 REVERT JUMPDEST PUSH1 0x0 DUP1 REVERT JUMPDEST PUSH1 0x0 DUP1 REVERT JUMPDEST PUSH1 0x0 DUP1 REVERT JUMPDEST PUSH1 0x0 PUSH1 0x1F NOT PUSH1 0x1F DUP4 ADD AND SWAP1 POP SWAP2 SWAP1 POP JUMP JUMPDEST PUSH32 0x4976616C69642073746F72652100000000000000000000000000000000000000 PUSH1 0x0 DUP3 ADD MSTORE POP JUMP JUMPDEST PUSH32 0x4E6F7420617661696C626C650000000000000000000000000000000000000000 PUSH1 0x0 DUP3 ADD MSTORE POP JUMP JUMPDEST PUSH32 0x596F75206861766520746F2070617920313030207765692066656520746F2063 PUSH1 0x0 DUP3 ADD MSTORE PUSH32 0x72656174652061206E65772073746F7265000000000000000000000000000000 PUSH1 0x20 DUP3 ADD MSTORE POP JUMP JUMPDEST PUSH32 0x596F7520617265206D616E6167657220796F752063616E742063726561746520 PUSH1 0x0 DUP3 ADD MSTORE PUSH32 0x73746F726520776974682063757272656E7420616464726573732E0000000000 PUSH1 0x20 DUP3 ADD MSTORE POP JUMP JUMPDEST PUSH32 0x4F6E6C79206D616E616765722063616E20706572666F726D2074686973207461 PUSH1 0x0 DUP3 ADD MSTORE PUSH32 0x736B2E0000000000000000000000000000000000000000000000000000000000 PUSH1 0x20 DUP3 ADD MSTORE POP JUMP JUMPDEST PUSH2 0xFFB DUP2 PUSH2 0xCD7 JUMP JUMPDEST DUP2 EQ PUSH2 0x1006 JUMPI PUSH1 0x0 DUP1 REVERT JUMPDEST POP JUMP JUMPDEST PUSH2 0x1012 DUP2 PUSH2 0xD09 JUMP JUMPDEST DUP2 EQ PUSH2 0x101D JUMPI PUSH1 0x0 DUP1 REVERT JUMPDEST POP JUMP INVALID LOG2 PUSH5 0x6970667358 0x22 SLT KECCAK256 SLOAD 0x4B SWAP3 LT MSTORE 0x5E DUP14 SWAP13 TIMESTAMP DUP13 0xA7 BASEFEE 0x27 0xC9 OR XOR CALLDATACOPY EXP RETURNDATACOPY STOP PUSH16 0xA6B076331C2FDCA819B3F364736F6C63 NUMBER STOP ADDMOD SMOD STOP CALLER "
				},
				"gasEstimates": {
					"creation": {
						"codeDepositCost": "836400",
						"executionCost": "25136",
						"totalCost": "861536"
					},
					"external": {
						"addToCart(address,uint256,address,uint256)": "infinite",
						"cartList(address,uint256)": "infinite",
						"createPorduct(string,uint256,uint256)": "infinite",
						"createStore(string)": "infinite",
						"getContractBalance()": "2647",
						"manager()": "2512",
						"storesList(address)": "infinite"
					}
				},
				"methodIdentifiers": {
					"addToCart(address,uint256,address,uint256)": "f4defea3",
					"cartList(address,uint256)": "d49bac1a",
					"createPorduct(string,uint256,uint256)": "89db5872",
					"createStore(string)": "d0e04fe3",
					"getContractBalance()": "6f9fb98a",
					"manager()": "481c6a75",
					"storesList(address)": "b1359145"
				}
			},
			"storageLayout": {
				"storage": [
					{
						"astId": 3,
						"contract": "ShoppingStore.sol:DCStore",
						"label": "manager",
						"offset": 0,
						"slot": "0",
						"type": "t_address"
					},
					{
						"astId": 27,
						"contract": "ShoppingStore.sol:DCStore",
						"label": "storesList",
						"offset": 0,
						"slot": "1",
						"type": "t_mapping(t_address,t_struct(StoresList)22_storage)"
					},
					{
						"astId": 33,
						"contract": "ShoppingStore.sol:DCStore",
						"label": "cartList",
						"offset": 0,
						"slot": "2",
						"type": "t_mapping(t_address,t_mapping(t_uint256,t_uint256))"
					}
				],
				"types": {
					"t_address": {
						"encoding": "inplace",
						"label": "address",
						"numberOfBytes": "20"
					},
					"t_mapping(t_address,t_mapping(t_uint256,t_uint256))": {
						"encoding": "mapping",
						"key": "t_address",
						"label": "mapping(address => mapping(uint256 => uint256))",
						"numberOfBytes": "32",
						"value": "t_mapping(t_uint256,t_uint256)"
					},
					"t_mapping(t_address,t_struct(StoresList)22_storage)": {
						"encoding": "mapping",
						"key": "t_address",
						"label": "mapping(address => struct DCStore.StoresList)",
						"numberOfBytes": "32",
						"value": "t_struct(StoresList)22_storage"
					},
					"t_mapping(t_uint256,t_struct(Products)10_storage)": {
						"encoding": "mapping",
						"key": "t_uint256",
						"label": "mapping(uint256 => struct DCStore.Products)",
						"numberOfBytes": "32",
						"value": "t_struct(Products)10_storage"
					},
					"t_mapping(t_uint256,t_uint256)": {
						"encoding": "mapping",
						"key": "t_uint256",
						"label": "mapping(uint256 => uint256)",
						"numberOfBytes": "32",
						"value": "t_uint256"
					},
					"t_string_storage": {
						"encoding": "bytes",
						"label": "string",
						"numberOfBytes": "32"
					},
					"t_struct(Products)10_storage": {
						"encoding": "inplace",
						"label": "struct DCStore.Products",
						"members": [
							{
								"astId": 5,
								"contract": "ShoppingStore.sol:DCStore",
								"label": "productName",
								"offset": 0,
								"slot": "0",
								"type": "t_string_storage"
							},
							{
								"astId": 7,
								"contract": "ShoppingStore.sol:DCStore",
								"label": "price",
								"offset": 0,
								"slot": "1",
								"type": "t_uint256"
							},
							{
								"astId": 9,
								"contract": "ShoppingStore.sol:DCStore",
								"label": "quantity",
								"offset": 0,
								"slot": "2",
								"type": "t_uint256"
							}
						],
						"numberOfBytes": "96"
					},
					"t_struct(StoresList)22_storage": {
						"encoding": "inplace",
						"label": "struct DCStore.StoresList",
						"members": [
							{
								"astId": 12,
								"contract": "ShoppingStore.sol:DCStore",
								"label": "storeName",
								"offset": 0,
								"slot": "0",
								"type": "t_string_storage"
							},
							{
								"astId": 14,
								"contract": "ShoppingStore.sol:DCStore",
								"label": "owner",
								"offset": 0,
								"slot": "1",
								"type": "t_address"
							},
							{
								"astId": 16,
								"contract": "ShoppingStore.sol:DCStore",
								"label": "itemID",
								"offset": 0,
								"slot": "2",
								"type": "t_uint256"
							},
							{
								"astId": 21,
								"contract": "ShoppingStore.sol:DCStore",
								"label": "products",
								"offset": 0,
								"slot": "3",
								"type": "t_mapping(t_uint256,t_struct(Products)10_storage)"
							}
						],
						"numberOfBytes": "128"
					},
					"t_uint256": {
						"encoding": "inplace",
						"label": "uint256",
						"numberOfBytes": "32"
					}
				}
			},
			"userdoc": {
				"kind": "user",
				"methods": {},
				"version": 1
			}
		}
	}
}